:020000040800F2
:1000000088130020290200086B2400084D210008F5
:1000100069240008550500080129000800000000B7
:100020000000000000000000000000006F24000835
:100030006D060008000000006D240008712400080F
:10004000430200084302000843020008430200087C
:10005000430200084302000843020008430200086C
:10006000430200084302000843020008430200085C
:10007000430200084302000843020008430200084C
:10008000BD050008430200082104000843020008DF
:10009000430200084302000843020008430200082C
:1000A0004302000815250008430200084302000827
:1000B000430200084302000843020008430200080C
:1000C00043020008430200084302000843020008FC
:1000D00043020008430200084302000843020008EC
:1000E00043020008430200084302000843020008DC
:1000F00043020008430200084302000843020008CC
:1001000043020008430200084302000843020008BB
:1001100043020008430200084302000843020008AB
:10012000430200084302000843020008430200089B
:10013000430200084302000843020008430200088B
:10014000430200084302000843020008430200087B
:10015000430200084302000843020008430200086B
:10016000430200084302000843020008430200085B
:100170004302000843020008430200080000000098
:10018000430200084302000800F002F800F03CF8C7
:100190000AA090E8000C82448344AAF10107DA45E2
:1001A00001D100F031F8AFF2090EBAE80F0013F0F8
:1001B000010F18BFFB1A43F001031847D02C0000B1
:1001C000F02C0000103A24BF78C878C1FAD8520742
:1001D00024BF30C830C144BF04680C6070470000C1
:1001E0000023002400250026103A28BF78C1FBD840
:1001F000520728BF30C148BF0B6070471FB502F0DF
:100200006FFC1FBD10B510BD00F0CFF81146FFF711
:10021000F5FF02F0CFFB00F0EDF803B4FFF7F2FFBB
:1002200003BC00F0F5F80000094880470948004782
:10023000FEE7FEE7FEE7FEE7FEE7FEE7FEE7FEE796
:10024000FEE7FEE704480549054A064B70470000F3
:100250000525000889010008880D0020881300206A
:10026000880F0020880F002053EA020C00F06980FC
:100270002DE9F04B4FF00006002B1FBFB3FA83F5BA
:1002800003FA05F424FA05F65E4012BF1643B2FAEB
:1002900082F502FA05F4C5F120051EBF22FA05FC1D
:1002A00044EA0C04203556EA044C4FEA144418BFC3
:1002B000641C4FF000084FF00009904271EB030CF2
:1002C00039D3002919BFB1FA81F701FA07F6B0FA5C
:1002D00080F700FA07F6C7F120071EBF20FA07FCD7
:1002E00046EA0C062037B6FBF4FCA7EB0507103FE7
:1002F00007F01F0BCBF120060CFA0BFB2CFA06F6CD
:1003000044BFB3460026202FA4BF5E464FF0000B2B
:100310005BEA060C08BF4FF0010B19EB0B09ABFBB6
:10032000027C48EB0608C01B06FB02CC0BFB03CC8F
:1003300071EB0C01C1E70B46024641464846BDE859
:10034000F08B13B54FF000004FF00001AFF30080C9
:10035000BDE81C4070474FF0000200B513469446BC
:100360009646203922BFA0E80C50A0E80C50B1F10D
:100370002001BFF4F7AF090728BFA0E80C5048BF21
:100380000CC05DF804EB890028BF40F8042B08BFBF
:10039000704748BF20F8022B11F0804F18BF00F8BB
:1003A000012B7047704770477047754600F02CF876
:1003B000AE4605006946534620F00700854618B052
:1003C00020B5FFF73FFFBDE820404FF000064FF09B
:1003D00000074FF000084FF0000B21F00701AC467A
:1003E000ACE8C009ACE8C009ACE8C009ACE8C00999
:1003F0008D46704710B50446AFF300802046BDE837
:100400001040FFF70ABF000000487047280D002089
:1004100001491820ABBEFEE726000200704700002D
:10042000014800F0F3B9000018000020464910B55B
:100430004A6822F440324A604A6843681A434A6074
:1004400001684A6822F480724A6001684A68036958
:1004500042EA03224A6001684A6822F040724A6018
:1004600001684A6883681A434A6001688A6822F40E
:1004700000628A6001688A68C3681A438A60816A78
:100480006FF07062D14201688A6822F070628A60FF
:1004900001688A680CD0836A1A438A6001688A6896
:1004A00022F040528A6001688A68C36A1A4301E0F8
:1004B00022F040528A6001688A6822F002028A6053
:1004C00001688A68037E42EA43028A6090F820103D
:1004D000002901684A680FD042F400624A6001684E
:1004E0004A6822F460424A6001684A68174C436ACD
:1004F00004EB43331A4301E022F400624A600168CE
:10050000CA6A22F47002CA620168CA6A838B104CFC
:1005100004EB03531A43CA6201688A6822F400722A
:100520008A6001688A6890F8303042EA43228A6023
:1005300001688A6822F480628A6001688A6840697A
:1005400042EA8020886010BD0023014000E0FFFFE8
:100550000000F0FFFEE710B5846B204600F020FBA2
:100560000120207110BD10B5846B204600F0F2FA16
:100570000120207110BD10B5846B206940F004008B
:100580002061204600F00EFB0120207110BD10B547
:10059000846B206940F004002061204600F0DCFA02
:1005A0000120207110BD10B5806B00F0FAFA10BD6B
:1005B00010B5806B00F0CFFA10BD0000014800F0CC
:1005C000DFBB0000C80C002001681823CAB2103A33
:1005D000B2FBF3F2054B6FF30901032A9B5CC36581
:1005E00000D9091D81650846704700006C2E00087F
:1005F00010B5014600208B698A6A4FF0C07453B170
:10060000B3F5005F15D072B1012A0CD0022A0AD0CE
:10061000032A09D104E01AB1012A06D0022A03D123
:10062000C96AC90100D5012010BDC96AA142FAD02A
:1006300010BD002AF7D0012AF2D0022AF3D0032AF3
:10064000F3D010BD30B50468256825F480252560F9
:10065000046863608368402B036803D09960006876
:10066000C26030BD9A600068C16030BD704772B62C
:10067000FEE7704778B50024009490F83C20012AEA
:1006800019D0012280F83C200A6807230568092A4E
:1006900013D9EE680A3A02EB420293409E43EE60A1
:1006A0000B788A680A3B03EB43039A400368DD68D2
:1006B0002A43DA6010E0022078BD2E6902EB420284
:1006C00093409E432E610B788A6803EB43039A4064
:1006D00003681D692A431A614A681F23072A13D237
:1006E00005686E6B521E02EB820293409E436E635E
:1006F0000B790A885B1E92B203EB83039A4003686E
:100700005D6B2A435A6327E005680D2A12D22E6BCF
:10071000D21F02EB820293409E432E630B790A881C
:10072000DB1F92B203EB83039A4003681D6B2A43DD
:100730001A6311E0EE6A0D3A02EB820293409E4387
:10074000EE620B790A880D3B92B203EB83039A4069
:100750000368DD6A2A43DA62164B0568144A9D4233
:1007600006D10D68122D03D1556845F480055560FA
:1007700005689D4218D10B68102B01D0112B13D1A5
:10078000536843F400035360096810290CD10A49E7
:100790000A4A0968B1FBF2F101EB8101490000E06E
:1007A000491E00910029FBD180F83C40002078BD13
:1007B00000230140002001401400002040420F00AF
:1007C00010B500680B4988420FD10B4C2088B0F55A
:1007D0002F7F0A480AD200F016F8094A2188A0F5AE
:1007E000006042F82100491C218010BDBDE8104086
:1007F00000F08CB90020014000000020180000200B
:10080000D801002070470068C06C704770B504467E
:1008100000680668456816F0020F05F020012AD02E
:1008200049B3216CC90603D4216C41F400712164E1
:10083000816811F0405F17D1217EA9B9C16A11F416
:10084000700F02D0816849050ED4416821F0200163
:100850004160206C20F480702064206CC00403D4BC
:10086000206C40F0010020642046FFF7A9FF2168BA
:100870006FF01200086016F0040F05F0800132D00E
:1008800089B3206CC00603D4206C40F4005020646F
:100890002068816811F4401F1ED1816B11F4401F44
:1008A00002D08168490517D44168490514D481688C
:1008B00011F0405F10D1217E71B9416821F08001B3
:1008C0004160206C20F480502064206CC00503D46B
:1008D000206C40F0010020642046FFF7CAFE21682A
:1008E0006FF00C00086016F0010F05F040010FD00A
:1008F00071B120680068C0070AD0206C40F48030D5
:100900002064204600F043F821686FF00100086081
:1009100016F0200F05F080610ED000290CD0606C1D
:1009200040F00200606420686FF0200505602046FA
:10093000FFF768FF2068056070BD70B504004FF0D8
:10094000000503D0206C002610B107E0012070BD27
:10095000204600F01DF8666484F83C60206CC006F8
:1009600010D4206C20F4885040F00200206420460F
:10097000FFF75CFD6664206C20F0020040F001008F
:10098000206400E0012584F83C60284670BD704773
:1009900010B586B0044614216846FFF7DCFC154903
:1009A0002068884224D114480021026842F48072F1
:1009B0000260006800F4807005900F4814380268E7
:1009C00042F001020260006800F001000590012081
:1009D00000900320CDE901016946084800F054FB6E
:1009E00000221146122000F0C3FC122000F0B2FCDD
:1009F00006B010BD00200140443802400000024013
:100A000018B50021009190F83C20012A07D001225E
:100A100080F83C2002689368DB0702D011E00220D6
:100A200018BD936843F001039360314A314B12685B
:100A3000B2FBF3F202EB420200E0521E0092002AE7
:100A4000FBD102689368DB0747D0036C40F2016476
:100A5000A34343F48073036453685B0505D5036CBB
:100A600023F4005343F480530364036CDB0404D584
:100A7000436C23F00603436400E0416480F83C10BB
:100A80001D4B6FF02201116001684A681B4C224324
:100A90004A6059680068CA06194906D0884224D1BC
:100AA000816811F0405F13D01FE08842F8D0154AEA
:100AB000904203D1D1F80423D206F1D0124A9042D9
:100AC00013D1D1F8041301F01F011029E8D30CE071
:100AD000816841F08041816007E0016C41F01001C4
:100AE0000164416C41F001014164002018BD000027
:100AF0001400002040420F000023014020000004A9
:100B000000200140002101400022014090F83C10EB
:100B100001290CD0012180F83C1001688A6822F07C
:100B200001028A6001688A68D20702D00BE00220C5
:100B300070474A68064B1A404A60016C21F488519C
:100B400041F001010164002180F83C100846704723
:100B5000DFFFFFFB70477047704770B54379012B8B
:100B60001CD0012646710223037105682B6802F030
:100B7000100440F6FE72A2409343D1E900210A43DB
:100B8000A2401A432A6001680A68C023A3409A431E
:100B90000A60067100214171084670BD022070BDD7
:100BA00070477047704770B5040003D02079002566
:100BB00010B105E0012070BD6571204600F008F815
:100BC00002202071256101202071002070BD0000ED
:100BD00070B586B0054614216846FFF7BCFB1F4977
:100BE0002868884237D11E480026016841F000512C
:100BF0000160006800F00050059019481038016845
:100C000041F0010101600068694600F001000590B3
:100C1000102000900320CDE90106124800F034FABC
:100C2000124C114820604FF0606060604020C4E9C1
:100C3000020600012061800060618000C4E90606B0
:100C4000C000C4E90806204600F06AF908B1FFF7C1
:100C50000EFDAC60A56306B070BD000000740040DE
:100C6000403802400000024088600240C80C00206A
:100C70002DE9F04104460D46174661790022069899
:100C8000012920D00126667102212171F5B1D4F825
:100C90000CC03549CCF83C10D4F80CC03349CCF822
:100CA0004010D4F80CC03249CCF84C102168D1F86F
:100CB00000C04CF0805CC1F800C090B3042834D070
:100CC000082837D134E00220BDE8F081D4F808C00C
:100CD0002849CCF83C10D4F808C02749CCF840107B
:100CE000D4F808C02549CCF84C102168D1F800C0D0
:100CF0004CF4805CC1F800C020B1042805D008285D
:100D000008D105E02268083204E022680C3201E0D4
:100D1000226810322068016841F400510160A06827
:100D20000EE0FFE72268143204E02268183201E086
:100D300022681C322068016841F000510160E068BF
:100D4000394600F057F90021617120B1216941F065
:100D500004012161B8E721680A6805F010039E408C
:100D600032430A60B0E7000067050008B1050008DB
:100D70008F05000857050008A7050008770500083B
:100D80002DE9F84304464FF00009CDF80090634880
:100D90004FF41651A56D0068B0FBF1F72E6894F87A
:100DA0005C10082000FA01F131420FD021680A6876
:100DB00052070BD50A6822F004020A6094F85C100E
:100DC0008840A860606D40F00100606594F85C1098
:100DD0004FF0010808FA01F0304208D02168496953
:100DE000090604D5A860606D40F00200606594F8C3
:100DF0005C1004208840304208D0216809688907C7
:100E000004D5A860606D40F00400606594F85C1043
:100E100010208840304218D021680968090714D58D
:100E2000A86020680168490304D50068000308D55C
:100E3000A16C07E00168C90503D4016821F008012D
:100E40000160216C09B12046884794F85C1020208D
:100E50008840304231D021680968C9062DD5A86084
:100E600094F8350005282068016806D0490347D565
:100E7000006800031DD4616C1CE021F016010160C4
:100E80002068416921F080014161206C08B9A06CA3
:100E900020B12068016821F00801016094F85C101D
:100EA0003F208840A86084F8358084F83490216D14
:100EB0001FE0E16B09B120468847606D00282BD008
:100EC000606DC00714D0052084F8350020680168E3
:100ED00021F0010101600098401C0090B84203D845
:100EE00020680068C007F6D184F8358084F8349013
:100EF000E16C002910D001B02046BDE8F04308475E
:100F00000168C905D5D4016821F01001016084F899
:100F1000358084F83490CCE7BDE8F88314000020D5
:100F20002DE9F041044600F0B5F906465CB1022017
:100F300084F83500002584F834502068016821F0D9
:100F4000010101600DE00120BDE8F08100F0A2F98F
:100F5000801B052805D920206065032084F8350012
:100F6000F2E720680068C007F0D1226811682048C5
:100F70000140D4E901031843D4E90336334318434D
:100F800063691843A3691843E3691843236A184344
:100F90000843616A042903D1D4E90B1319430843B8
:100FA000106020684069666A20F0070130460E43F1
:100FB000012704280CD1A06A0643E06A40B120460C
:100FC000FFF716FB20B14020606584F83570BAE762
:100FD000206846612046FFF7F7FA94F85C203F212D
:100FE00091408160656584F835700020ACE70000B1
:100FF0003F8010F02DE9F0410446866D90F83400F2
:10100000002501280DD0012084F8340094F83570B3
:101010000020012F07D084F8340002252846BDE8BF
:10102000F0810220FBE7022784F8357060652046D6
:10103000FFF708FB94F85C103F208840B060206800
:10104000016841F016010160206C20B12068016840
:1010500041F0080101602068016841F00101016070
:10106000DCE7000070B5044600F014F90546601C8A
:1010700002D004480078044400F00CF9401BA04260
:10108000FAD370BD080000202DE9F84FDFF8BCA1AD
:101090000022012503264FF00F090AF1040BAAF1E3
:1010A000040E00BF0B6805FA02F42340A34270D17E
:1010B0000F7907F00307012F01D0022F16D187689F
:1010C0004FEA420806FA08FC27EA0C07D1F80CC0E0
:1010D0000CFA08FC4CEA070CC0F808C04768A743A4
:1010E0000C79C4F3001494403C4344600C79E4430D
:1010F000A4070AD0C4684FEA420C06FA0CF7BC43B6
:101100008F6807FA0CF72743C7600C7904F00304D3
:10111000022C12D1D40800EB840CDCF820405707D5
:10112000FF0E09FA07F824EA0804D1F8108008FA3B
:1011300007F848EA0408CCF8208004684FEA420C1B
:1011400006FA0CF7BC430F7907F0030707FA0CF710
:10115000274307604C6814F4403F70D03C4C27682C
:1011600047F480472760246822F0030704F4804492
:101170000094384C07EB040CDCF8084897074FEA5A
:10118000177809FA08F7BC43334FB84202D1002759
:1011900024E054E0314FB84201D101271EE0304F26
:1011A000B84201D1022719E02E4FB84201D10327DE
:1011B00014E02D4FB84201D104270FE02B4FB84265
:1011C00001D105270AE02A4FB84201D1062705E0E0
:1011D000284FB84201D1072700E0082707FA08F78F
:1011E0002743CCF80878DAF800405746D1F804C015
:1011F0009C435FEACC2C00D51C433C60DBF80040EC
:101200005F46D1F804C09C435FEA8C2C00D51C4398
:101210003C60DEF800407746D1F804C09C435FEAAA
:101220008C3C00D51C433C60084F083F3C68D1F81B
:1012300004C09C435FEACC3C00D51C433C60521C7C
:10124000102AFFF42FAFBDE8F88F0000083C0140E2
:1012500044380240003001400000024000040240D7
:1012600000080240000C024000100240001402403E
:1012700000180240001C0240426921EA02030A40B1
:1012800043EA0241816170470AB1816170470904F4
:10129000FBE700000148806870470000080000205C
:1012A000024881680278114481607047080000207C
:1012B0000B4810B5016841F400710160016841F408
:1012C00080610160016841F480710160032000F0D9
:1012D0006FF80F2000F006F800F024F8002010BD91
:1012E000003C024070B50D4D04464FF47A712878E9
:1012F000B1FBF0F00A490968B1FBF0F000F00AFB1D
:1013000048B9102C07D200222146501E00F030F8B8
:1013100000206C6070BD012070BD0000080000203E
:10132000140000200A4808B5016841F480410160BA
:10133000006800F4804000900548001F016841F0FB
:1013400080510160006800F08050009008BD0000EE
:1013500044380240002809DB00F01F0201219140BF
:101360004009800000F1E020C0F800117047000043
:10137000F0B40E4B1B680C46C3F30223C3F1070500
:10138000042D00D90425191D072901D2002300E0EE
:10139000DB1E012606FA05F1491E214099409E40B8
:1013A000761E16403143F0BC01F0ABBA0CED00E004
:1013B000064900F0070208684FF6FF03184040EAAC
:1013C0000220034A10430860704700000CED00E063
:1013D0000000FA052DE9F0470E46050065D0DFF85C
:1013E0001481D8F80000F7B200F00700B04207D22D
:1013F00088F80070D8F8000000F00700B04254D11F
:1014000028683D4C810712D5400703D5206840F479
:10141000E05020602878000703D5206840F4604041
:1014200020602068A96820F0F00008432060287838
:10143000C0072DD0304968680839012812D0022829
:1014400013D0032811D00968890700292DDA2168F3
:1014500021F0030101432160FFF71CFF814641F2A7
:10146000883A0EE009688903EFE709688901ECE72B
:10147000FFF710FFA0EB0901514502D90320BDE899
:10148000F0872068696800F00C00B0EB810FEFD1A5
:10149000D8F80010404601F00701B14207D90770A3
:1014A000006800F00700B04201D00120E7E728788B
:1014B000400705D52068E96820F4E0500843206023
:1014C0002878000706D52068296920F4604040EAA2
:1014D000C100206000F038F82168084AC1F3031108
:1014E000515CC8400649086006480068FFF7FAFEEC
:1014F0000020C4E7003C024008380240742E000877
:10150000140000200C000020044805490068096808
:10151000044AC1F38221515CC84070471400002086
:1015200008380240842E000804480549006809680C
:10153000044AC1F34231515CC84070471400002096
:1015400008380240842E0008154810B5006810F0D5
:101550000C02144813D04110042A0FD0082A0ED1CF
:101560000F4C241F2268236802F03F025B0207D55C
:101570002068C0F38810A0FB010106E0084610BDFA
:101580002168C1F38811A1FB00010023FEF76CFE66
:101590002168C1F30141491C4900B0FBF1F010BDC5
:1015A000083802400024F4002DE9F84F04006ED002
:1015B0002078DFF84C93C007A9F104054AD009F15F
:1015C00004000168C1F38101012908D00068C0F35B
:1015D000810002280AD1D9F80000400206D5286807
:1015E000800337D560680028E1D033E06068B0F54B
:1015F000803F10D0B0F5A02F286810D020F48030A4
:101600002860286820F4802028606068A8B1FFF76F
:1016100041FE06460DE0286840F48030F4E740F4CF
:1016200080202860F7E700BFFFF734FE801B6428A6
:1016300073D828688003F7D50CE0FFF72BFE064629
:1016400005E000BFFFF726FE801B6428F0D828685D
:101650008003F7D42078DFF8AC8280074FF0000ACF
:101660003ED5A748001D016811F00C0F08D0006896
:10167000C0F3810002280BD1D9F80000400207D442
:101680002868800716D5E068012800D112E033E110
:10169000E068B8B10120C8F80000FFF7FBFD06467E
:1016A00005E000BFFFF7F6FD801B0228C0D82868C0
:1016B0008007F7D52868216920F0F80040EAC100CA
:1016C00028600DE0C8F800A0FFF7E4FD064604E03E
:1016D000FFF7E0FD801B02281FD828688007F7D499
:1016E0002078000722D5864F87486169703771B12D
:1016F00001210160FFF7CEFD064604E0FFF7CAFDB9
:10170000801B022809D838688007F7D50EE0C0F89A
:1017100000A0FFF7BFFD064605E082E0FFF7BAFD37
:10172000801B02287DD838688007F7D420784007CE
:1017300068D5DFF8CCB100270BF13C0BDBF80000DB
:10174000C0000BD4DBF8001041F08051CBF8001042
:10175000DBF80000012700F0805000906B4E3068ED
:10176000C00510D4306840F480703060FFF792FDFF
:10177000009005E0FFF78EFD0099401A022850D82E
:101780003068C005F6D55E4EA0686C3601280FD0D3
:101790000528306810D020F001003060306820F05B
:1017A00004003060A068B8B1FFF774FD00900FE04E
:1017B000306840F00100F4E740F004003060F7E7E3
:1017C000FFF768FD0099411A41F28830814266D8DE
:1017D00030688007F4D50EE0FFF75CFD009007E06D
:1017E000FFF758FD0099411A41F28830814256D8DE
:1017F00030688007F4D42FB1DBF8001021F080515D
:10180000CBF80010A069C8B33D49091D0968C1F3B0
:10181000810102294AD00228504607D0C8F860004A
:1018200000E03CE0FFF736FD04463BE04746C8F8E1
:101830006000FFF72FFD064605E000BFFFF72AFD19
:10184000801B02282BD828688001F7D4D4E907012F
:101850000843A16A2E4A490802EB0141626A41EA43
:101860008211084394F82C1040EA0161C9F8001075
:1018700001203866FFF70EFD044606E03EE000BF9B
:10188000FFF708FD001B022809D828688001F7D55A
:1018900034E000BFFFF7FEFC001B022802D9032042
:1018A000BDE8F88F28688001F4D427E00128F7D03C
:1018B000D9F80000E26900F4800191421CD1226A4B
:1018C00000F03F01914217D147F6C071626A0140B2
:1018D000B1EB821F10D1A26A4FF0FF3300F4403108
:1018E00003EB5202B1EB024F06D194F82C1000F03A
:1018F0007060B0EB016F01D00120D1E70020CFE78D
:101900000438024000004742800E47420070004009
:101910000000FFFF10B5401EB0F1807F01D3012011
:1019200010BD4FF0E02460610F21601700F0E9FF67
:101930000020A06107202061002010BD7047704783
:1019400010B590F83C20012A22D0012280F83C20DA
:10195000CA688C6822F4407222434C6822F4806288
:1019600022430C6822F4006222430C6922F4805264
:1019700022434C6922F400522243C969002322F415
:1019800080420A4301684A6480F83C30002010BD60
:10199000022010BD70B590F83C20012A32D00124FD
:1019A00080F83C40022280F83D2003685A689D6818
:1019B00022F070060A6832435A60134B02689A425A
:1019C00014D0B2F1804F11D0104B9A420ED0104B70
:1019D0009A420BD00F4B9A4208D00F4B9A4205D037
:1019E0000E4B9A4202D00E4B9A4204D1496825F020
:1019F00080031943916080F83D40002180F83C103D
:101A0000084670BD022070BD000001400004004087
:101A100000080040000C004000040140004001406C
:101A20000018004010B5040003D094F83D0010B138
:101A300007E0012010BD002084F83C00204600F0A3
:101A40001FF8022084F83D00211D206800F068FD89
:101A5000012084F8460084F83E0084F83F0084F8B2
:101A6000400084F8410084F8420084F8430084F880
:101A7000440084F8450084F83D00002010BD0000BB
:101A800008B51C4902681C488A4211D1016841F01E
:101A9000010101600068002200F001000090114681
:101AA0001920FFF765FCBDE808401920FFF752BC7C
:101AB0001149091FB2F1804F08D0104B9A420ED144
:101AC000086840F002000860086810E0086840F00C
:101AD00001000860086800F00100009008BD084996
:101AE0008A42FBD1016841F002010160006800F008
:101AF0000200F2E7000001404438024000040040C8
:101B00000004014090F83D10012901D001207047E8
:101B1000022180F83D1000681149884214D0B0F1CC
:101B2000804F11D00F4988420ED00F4988420BD008
:101B30000E49884208D00E49884205D00D49884296
:101B400002D00D49884204D1816801F007010629BD
:101B500003D0016841F001010160002070470000DE
:101B6000000001400004004000080040000C00405C
:101B700000040140004001400018004090F83D1072
:101B8000012901D001207047022180F83D10016831
:101B9000CA6842F00102CA6000681149884214D044
:101BA000B0F1804F11D00F4988420ED00E498842C3
:101BB0000BD00E49884208D00D49884205D00D4906
:101BC000884202D00C49884204D1816801F00701A3
:101BD000062903D0016841F001010160002070472F
:101BE000000001400004004000080040000C0040DC
:101BF00000040140004001400018004070B5044658
:101C000090F83C000025012817D0012684F83C609C
:101C1000022084F83D002068826822F0770222F4D6
:101C20007F4282600868502838D00DDC20284FD0D1
:101C300005DC90B3102811D14AE0022070BD302895
:101C400046D040280AD13BE060282FD070280DD024
:101C5000B0F5805F03D0B0F5005F12D0012584F8A5
:101C60003D60002084F83C00284670BDCB68D1E977
:101C70000121206800F0C5FC2068816841F07701EF
:101C800009E0CB68D1E90121206800F0BAFC2068A6
:101C9000816841F480418160E1E719E0CA684968E0
:101CA000206800F083FD5021206806E0CA6849687A
:101CB000206800F08CFD6021206800F0ACFCCEE7CD
:101CC000CA684968206800F071FD40212068F4E787
:101CD000226801461046F0E7704770B50446006878
:101CE00001694FF00005C943890715D4C168C9438C
:101CF000890711D4E91E01610120207720688069DD
:101D00008007204602D0FFF7E7FF04E000F098F8D4
:101D1000204600F02AF9257720680169C943490760
:101D200017D4C168C943490713D46FF00401016196
:101D3000022020772068806910F4407F204602D07E
:101D4000FFF7CAFF04E000F07BF8204600F00DF931
:101D5000257720680169C943090716D4C168C943BA
:101D6000090712D46FF00801016104202077206870
:101D7000C0698007204602D0FFF7AEFF04E000F004
:101D80005FF8204600F0F1F8257720680169C94323
:101D9000C90617D4C168C943C90613D46FF010012E
:101DA0000161082020772068C06910F4407F204638
:101DB00002D0FFF791FF04E000F042F8204600F067
:101DC000D4F8257720680169C943C90708D1C168DB
:101DD000C943C90704D1891E0161204600F02AF9D0
:101DE00020680169C943090609D4C168C9430906C5
:101DF00005D46FF0800101612046FFF79FFD206848
:101E00000169C943490609D4C168C943490605D4D3
:101E10006FF040010161204600F030F9206801694F
:101E2000C94389060BD4C168C943890607D46FF03A
:101E3000200101612046BDE87040FFF780BD70BD04
:101E4000704770B5044690F83C0000260D46012806
:101E50000FD0012084F83C006AB1042A1DD0082A62
:101E60002FD00C2A3FD00126002084F83C003046B9
:101E700070BD022070BD206800F0D6FB206881692B
:101E800041F0080181612068816921F004018161CC
:101E9000206881692A69114311E0206800F0F4FB91
:101EA0002068816941F4006181612068816921F4C1
:101EB00080618161206881692A6941EA022181612A
:101EC000D2E7206800F016FC2068C16941F00801E3
:101ED000C1612068C16921F00401C1612068C16944
:101EE0002A69114311E0206800F038FC2068C169BC
:101EF00041F40061C1612068C16921F48061C16160
:101F00002068C1692A6941EA0221C161ACE710B5C4
:101F1000040003D094F83D0010B107E0012010BD8B
:101F2000002084F83C00204600F01EF8022084F8CF
:101F30003D00211D206800F0F3FA012084F84600DE
:101F400084F83E0084F83F0084F8400084F84100A3
:101F500084F8420084F8430084F8440084F8450083
:101F600084F83D00002010BD7047704710B504464E
:101F7000022249B104290ED0082913D094F8410057
:101F8000012816D0012010BD94F83E000128F9D197
:101F900084F83E200FE094F83F000128F2D184F845
:101FA0003F2008E094F840000128EBD184F840205D
:101FB00001E084F841200122206800F015FB164959
:101FC0002068164A884201D0904203D1436C43F402
:101FD000004343642068884213D0B0F1804F10D092
:101FE0000F4988420DD00F4988420AD00E498842D5
:101FF00007D0904205D00D49884202D00C49884252
:1020000004D1816801F00701062903D0016841F07D
:1020100001010160002010BD0000014000040140EA
:102020000004004000080040000C00400040014057
:102030000018004038B500680B49884213D10B489E
:102040000024402104800A48FFF716F9E023094ADA
:10205000002109480094FEF70BFEBDE83840064811
:102060004838FEF7CDBC38BD00000140000000201C
:1020700000000240EC2A000860000020704770B5A4
:10208000040004D094F83D00002510B106E00120C2
:1020900070BD84F83C50204600F022F8242084F8DB
:1020A0003D002068C16821F40051C160204600F065
:1020B000A1FB2068016921F4904101612068416918
:1020C00021F02A0141612068C16841F40051C160DA
:1020D0002564202084F83D0084F83E00002070BD77
:1020E00010B586B0044614216846FEF734F9144949
:1020F0002068884221D113480021026842F0100272
:102100000260006800F0100005900E481438026864
:1021100042F001020260006800F0010005904FF4F7
:10212000C06000900220CDE9010103200390072048
:10213000049069460448FEF7A7FF06B010BD0000F2
:10214000001001404438024000000240FEE7000059
:102150007FB5002415480094019402941249039419
:1021600001604FF48031C0E901140461047680F805
:1021700020400903C1620125C5614910C460816224
:1021800080F830404461FEF7D8FB08B172B6FEE734
:10219000CDE90045694605480294FEF76BFA002830
:1021A00001D072B6FEE77FBD00200140180000207C
:1021B000F0B587B014216846FEF7CDF81D4800241D
:1021C000016841F080010160016801F08001059122
:1021D000016841F004010160016801F0040105910A
:1021E000016841F0010101600068134E00F0010038
:1021F000059000220E213046FFF746F80F4F0022CF
:1022000040213846FFF740F80E2000900125CDE927
:102210000154694630460394FEF736FF4020009093
:10222000CDE90154694638460394FEF72DFF07B007
:10223000F0BD0000303802400008024000000240BB
:1022400010B586B0002418480094019402940394B9
:10225000049414490594016042F20F71C0E901141D
:1022600040F69F71C0E9031444618461FFF7DAFB13
:1022700008B172B6FEE74FF48050009069460A48F4
:10228000FFF7BCFC08B172B6FEE7049404A9064847
:102290000594FFF77FFB002801D072B6FEE706B079
:1022A00010BD0000000001407400002010B586B091
:1022B00000241648009401940294039404944FF06F
:1022C00080410594C0E9001440F2F311C0E90241D5
:1022D00004618461FFF7A6FB08B172B6FEE74FF414
:1022E0008050009069460948FFF788FC08B172B633
:1022F000FEE72020CDE9040404A90448FFF74AFBC7
:10230000002801D072B6FEE706B010BDBC00002068
:1023100010B58EB000240794089409940A940B9485
:102320001C2168460C94FEF716F81D481B49C0E9AD
:10233000001440F2F311C0E9024104618461FFF727
:1023400071FB08B172B6FEE74FF48050079007A901
:102350001348FFF753FC08B172B6FEE71048FFF7C9
:10236000D6FD08B172B6FEE72020CDE90B040BA91B
:102370000B48FFF70FFB08B172B6FEE76020CDE90E
:10238000000402940022694605480494FFF759FDB1
:10239000002801D072B6FEE70EB010BD0004004068
:1023A0000401002010B596B000240F9410941194ED
:1023B000129413941C2108A81494FDF7CCFF20213B
:1023C0006846FDF7C8FF27482549C0E9001440F2D8
:1023D000F311C0E90241046144618461FFF722FB0B
:1023E00008B172B6FEE74FF480500F900FA91D4858
:1023F000FFF704FC08B172B6FEE71A48FFF787FD45
:1024000008B172B6FEE72020CDE9130413A91548E0
:10241000FFF7C0FA08B172B6FEE76020CDE9080404
:102420000A940B940C940D94002208A90D480E9464
:10243000FFF707FD08B172B6FEE700944FF40050B5
:10244000CDE9044002940194039469460548079439
:10245000FFF776FA002801D072B6FEE716B010BD7D
:10246000000401404C010020FEE7FEE77047704782
:10247000FEF716BF30B593B030216846FDF76BFF0D
:1024800014210CA8FDF767FF1C480025016841F0E6
:1024900080510160006800F0805011901848016878
:1024A00041F4804101600068022400F480401190F2
:1024B00001200090000401908001CDE9064008AAA7
:1024C0000420502182E813000B906846FFF76CF857
:1024D00008B172B6FEE70CA90F2081E831004FF475
:1024E0008050CDE90F0502210CA8FEF773FF0028EC
:1024F00001D072B6FEE713B030BD00004038024094
:10250000007000400248016841F4700101607047AA
:1025100088ED00E00148FFF7E0BB000074000020F8
:10252000F0B50268254C264D264E274F274B4FF01D
:10253000804CA04209D0604507D0A84205D0B042E7
:1025400003D0B84201D0984204D122F0700E4A68FC
:1025500042EA0E02A0421BD0604519D0A84217D013
:10256000B04215D0B84213D0984211D0184DA842AD
:102570000ED0184DA8420BD0174DA84208D0174DC9
:10258000A84205D0164DA84202D0164DA84203D14C
:1025900022F44075CA682A434D6922F080022A431A
:1025A00002608A68C2620A688262A04201D09842D0
:1025B00001D10969016301214161F0BD00000140C1
:1025C0000004004000080040000C004000040140EE
:1025D0000040014000440140004801400018004014
:1025E000001C00400020004010B501F01F03012135
:1025F000046A99408C430462016A9A401143016263
:1026000010BD10B5846842EA032224F47F440A43D3
:102610002243826010BD826822F070020A4342F0B9
:102620000701816070470000F0B5026A22F00102E4
:102630000262036A42688469124E24F073050C68D2
:102640002C4323F002058B682B430D4DA84201D08B
:10265000B04205D123F00807CB683B4323F00403C5
:10266000A84201D0B04205D14D6922F44072154311
:102670008A692A4342608461496841630362F0BD0C
:102680000000014000040140F0B5026A22F010028F
:102690000262026A436884690D6824F4E64444EAED
:1026A00005248D6822F0200242EA05120F4D104EDB
:1026B000A84201D0B04206D1CF6822F0800242EA9F
:1026C000071222F04002A84201D0B04207D14D6962
:1026D00023F4406343EA85038D6943EA850343603D
:1026E0008461496881630262F0BD0000000001401E
:1026F00000040140F0B5026A22F480720262026AAC
:102700004368C46922F4007224F073050C68124E09
:102710002C438D6842EA05220E4DA84201D0B042FA
:1027200006D1CF6822F4006242EA072222F48062D6
:10273000A84201D0B04207D14D6923F4405343EA87
:1027400005138D6943EA05134360C4614968C16399
:102750000262F0BD000001400004014030B5026A91
:1027600022F480520262046A4268C3690D6823F44D
:10277000E64343EA05238D6824F4005444EA053413
:10278000084DA84202D0084DA84204D14D6922F458
:10279000804242EA85124260C36149680164046272
:1027A00030BD0000000001400004014010B5036A84
:1027B000046A24F001040462846924F0F00444EA09
:1027C000021423F00A020A438461026210BD10B5AC
:1027D000036A23F0100303628369046A23F47043DD
:1027E00043EA023224F0A00343EA0111826101624C
:1027F00010BD000070B5044600680169E26821F46C
:102800004051114301612169A068E269084361698F
:10281000114308432168CA6849F20C639A43024392
:10282000CA6020684169A26921F440711143416185
:1028300031492068884202D03049884202D1FEF7EF
:1028400073FE01E0FEF760FEE269002319216425B2
:102850003226B2F5004F626828D0A0FB0101930F29
:102860009200FDF701FD0146B0FBF5F06FF0180294
:10287000504301EB800006EB0010B0FBF5F000F0D8
:10288000F002B1FBF5F002EB0012B1FBF5F06FF0D6
:102890001803584301EB800006EB0010B0FBF5F085
:1028A00000F00F0021681044886070BDA0FB01019A
:1028B00092185B41FDF7D8FC0146B0FBF5F0020130
:1028C000B1FBF5F06FF01803584301EB800006EB05
:1028D000C000B0FBF5F000F0F80002EB4002B1FBE5
:1028E000F5F0584301EB800006EBC000B0FBF5F0BB
:1028F00000F00700D6E7000000100140001401407E
:10290000FEE70907090E002804DB00F1E02080F84B
:102910000014704700F00F0000F1E02080F8141D53
:1029200070470000F0B586B00022204D204C049284
:10293000059213464FF42F7602920392ADF80020D1
:1029400018E000BFBDF800701F440297B7420CDAD0
:1029500050F82770BDF800C051F82CC005FA8CFC67
:10296000DDF80CE007FB1CE70397BDF800707F1C47
:10297000ADF80070BDF80070E02FE3D3039F6760EF
:102980006768DDF810C0674502DD6768CDE904734C
:102990005B1C9BB2B342D0D3059800EB4010C1172B
:1029A00000EB11700009608006B0F0BD00F8FFFF79
:1029B000000000201CB5FEF77BFCFFF75BFDFFF776
:1029C000F7FB3F480024016841F4001101600068F2
:1029D000224600F40010009021461020FEF7C8FCAB
:1029E0001020FEF7B7FC384900943648019408607F
:1029F0000846FEF7D8F808B172B6FEE72420CDE904
:102A00000004002269463048FEF7A7F808B172B604
:102A1000FEE7FFF74BFCFFF713FCFFF799FBFFF70F
:102A2000C1FC2B48294901604FF41651C0E901143B
:102A30000C21C460C0E904418461C461FFF71FFB3D
:102A400008B172B6FEE7FFF763FC224D01220221B6
:102A50002846FEF719FC002204212846FEF714FC44
:102A6000002208212846FEF70FFC4FF47A70FEF78B
:102A7000F9FA15485C30FFF745F8E023164A0021C3
:102A800011480094FEF7F4F80F484838FDF7B8FFF6
:102A90000F4800219038FFF769FA0B481430FFF710
:102AA0006DF84FF42F760D4C751C2088B042FCD188
:102AB000074809494430FFF735FF2580F5E7000056
:102AC00030380240007400406000002000100140D7
:102AD0009401002000080240EC2A000800000020B9
:102AE0004FF04070E1EE100A70470000000800004F
:102AF00090090000100B0000720C0000A80D0000EF
:102B0000A70E0000640F0000D90F000000100000A5
:102B1000D90F0000640F0000A70E0000A80D0000F0
:102B2000720C0000100B000090090000000800006B
:102B300070060000F00400008E0300005802000040
:102B4000590100009C000000270000000000000068
:102B5000270000009C0000005901000058020000FE
:102B60008E030000F0040000700600000008000062
:102B700090090000100B0000720C0000A80D00006E
:102B8000A70E0000640F0000D90F00000010000025
:102B9000D90F0000640F0000A70E0000A80D000070
:102BA000720C0000100B00009009000000080000EB
:102BB00070060000F00400008E03000058020000C0
:102BC000590100009C0000002700000000000000E8
:102BD000270000009C00000059010000580200007E
:102BE0008E030000F00400007006000000080000E2
:102BF00090090000100B0000720C0000A80D0000EE
:102C0000A70E0000640F0000D90F000000100000A4
:102C1000D90F0000640F0000A70E0000A80D0000EF
:102C2000720C0000100B000090090000000800006A
:102C300070060000F00400008E030000580200003F
:102C4000590100009C000000270000000000000067
:102C5000270000009C0000005901000058020000FD
:102C60008E030000F0040000700600000008000061
:102C700070060000F00400008E03000058020000FF
:102C8000590100009C000000270000000000000027
:102C9000270000009C0000005901000058020000BD
:102CA0008E030000F0040000700600000008000021
:102CB00090090000100B0000720C0000A80D00002D
:102CC000A70E0000640F0000D90F000000100000E4
:102CD000D90F0000640F0000A70E0000A80D00002F
:102CE000720C0000100B00009009000000080000AA
:102CF00070060000F00400008E030000580200007F
:102D0000590100009C0000002700000000000000A6
:102D1000270000009C00000059010000580200003C
:102D20008E030000F00400007006000000080000A0
:102D300090090000100B0000720C0000A80D0000AC
:102D4000A70E0000640F0000D90F00000010000063
:102D5000D90F0000640F0000A70E0000A80D0000AE
:102D6000720C0000100B0000900900000008000029
:102D700090090000100B0000720C0000A80D00006C
:102D8000A70E0000640F0000D90F00000010000023
:102D9000D90F0000640F0000A70E0000A80D00006E
:102DA000720C0000100B00009009000000080000E9
:102DB00070060000F00400008E03000058020000BE
:102DC000590100009C0000002700000000000000E6
:102DD000270000009C00000059010000580200007C
:102DE0008E030000F00400007006000000080000E0
:102DF00070060000F00400008E030000580200007E
:102E0000590100009C0000002700000000000000A5
:102E1000270000009C00000059010000580200003B
:102E20008E030000F004000070060000000800009F
:102E300090090000100B0000720C0000A80D0000AB
:102E4000A70E0000640F0000D90F00000010000062
:102E5000D90F0000640F0000A70E0000A80D0000AD
:102E6000720C0000100B0000900900000006101604
:102E7000000610160000000000000000010203041C
:102E8000060708090000000001020304AC2E000838
:102E90000000002018000000C4010008C42E000833
:102EA0001800002070130000E0010008000000007E
:102EB0000000000001000000100000000000000001
:042EC0000024F400F6
:040000050800018965
:00000001FF
