:020000040800F2
:100000003812002029020008EF200008F31E000823
:10001000ED20000855050008D72200080000000068
:10002000000000000000000000000000F3200008B5
:100030006D06000800000000F1200008F52000080F
:10004000430200084302000843020008430200087C
:10005000430200084302000843020008430200086C
:10006000430200084302000843020008430200085C
:10007000430200084302000843020008430200084C
:10008000BD050008430200082104000843020008DF
:10009000430200084302000843020008430200082C
:1000A00043020008992100084302000843020008A7
:1000B000430200084302000843020008430200080C
:1000C00043020008430200084302000843020008FC
:1000D00043020008430200084302000843020008EC
:1000E00043020008430200084302000843020008DC
:1000F00043020008430200084302000843020008CC
:1001000043020008430200084302000843020008BB
:1001100043020008430200084302000843020008AB
:10012000430200084302000843020008430200089B
:10013000430200084302000843020008430200088B
:10014000430200084302000843020008430200087B
:10015000430200084302000843020008430200086B
:10016000430200084302000843020008430200085B
:100170004302000843020008430200080000000098
:10018000430200084302000800F002F800F03CF8C7
:100190000AA090E8000C82448344AAF10107DA45E2
:1001A00001D100F031F8AFF2090EBAE80F0013F0F8
:1001B000010F18BFFB1A43F001031847D0290000B4
:1001C000F0290000103A24BF78C878C1FAD8520745
:1001D00024BF30C830C144BF04680C6070470000C1
:1001E0000023002400250026103A28BF78C1FBD840
:1001F000520728BF30C148BF0B6070471FB502F0DF
:1002000033F91FBD10B510BD00F0CFF81146FFF750
:10021000F5FF02F0B9F800F0EDF803B4FFF7F2FFD4
:1002200003BC00F0F5F80000094880470948004782
:10023000FEE7FEE7FEE7FEE7FEE7FEE7FEE7FEE796
:10024000FEE7FEE704480549054A064B70470000F3
:100250008921000889010008380C0020381200208C
:10026000380E0020380E002053EA020C00F069809E
:100270002DE9F04B4FF00006002B1FBFB3FA83F5BA
:1002800003FA05F424FA05F65E4012BF1643B2FAEB
:1002900082F502FA05F4C5F120051EBF22FA05FC1D
:1002A00044EA0C04203556EA044C4FEA144418BFC3
:1002B000641C4FF000084FF00009904271EB030CF2
:1002C00039D3002919BFB1FA81F701FA07F6B0FA5C
:1002D00080F700FA07F6C7F120071EBF20FA07FCD7
:1002E00046EA0C062037B6FBF4FCA7EB0507103FE7
:1002F00007F01F0BCBF120060CFA0BFB2CFA06F6CD
:1003000044BFB3460026202FA4BF5E464FF0000B2B
:100310005BEA060C08BF4FF0010B19EB0B09ABFBB6
:10032000027C48EB0608C01B06FB02CC0BFB03CC8F
:1003300071EB0C01C1E70B46024641464846BDE859
:10034000F08B13B54FF000004FF00001AFF30080C9
:10035000BDE81C4070474FF0000200B513469446BC
:100360009646203922BFA0E80C50A0E80C50B1F10D
:100370002001BFF4F7AF090728BFA0E80C5048BF21
:100380000CC05DF804EB890028BF40F8042B08BFBF
:10039000704748BF20F8022B11F0804F18BF00F8BB
:1003A000012B7047704770477047754600F02CF876
:1003B000AE4605006946534620F00700854618B052
:1003C00020B5FFF73FFFBDE820404FF000064FF09B
:1003D00000074FF000084FF0000B21F00701AC467A
:1003E000ACE8C009ACE8C009ACE8C009ACE8C00999
:1003F0008D46704710B50446AFF300802046BDE837
:100400001040FFF70ABF000000487047D40B0020DF
:1004100001491820ABBEFEE726000200704700002D
:10042000014800F003BA000018000020464910B54A
:100430004A6822F440324A604A6843681A434A6074
:1004400001684A6822F480724A6001684A68036958
:1004500042EA03224A6001684A6822F040724A6018
:1004600001684A6883681A434A6001688A6822F40E
:1004700000628A6001688A68C3681A438A60816A78
:100480006FF07062D14201688A6822F070628A60FF
:1004900001688A680CD0836A1A438A6001688A6896
:1004A00022F040528A6001688A68C36A1A4301E0F8
:1004B00022F040528A6001688A6822F002028A6053
:1004C00001688A68037E42EA43028A6090F820103D
:1004D000002901684A680FD042F400624A6001684E
:1004E0004A6822F460424A6001684A68174C436ACD
:1004F00004EB43331A4301E022F400624A600168CE
:10050000CA6A22F47002CA620168CA6A838B104CFC
:1005100004EB03531A43CA6201688A6822F400722A
:100520008A6001688A6890F8303042EA43228A6023
:1005300001688A6822F480628A6001688A6840697A
:1005400042EA8020886010BD0023014000E0FFFFE8
:100550000000F0FFFEE710B5846B204600F030FB92
:100560000120207110BD10B5846B204600F002FB05
:100570000120207110BD10B5846B206940F004008B
:100580002061204600F01EFB0120207110BD10B537
:10059000846B206940F004002061204600F0ECFAF2
:1005A0000120207110BD10B5806B00F00AFB10BD5A
:1005B00010B5806B00F0DFFA10BD0000014800F0BC
:1005C0005FBC0000740B002001681823CAB2103A07
:1005D000B2FBF3F2054B6FF30901032A9B5CC36581
:1005E00000D9091D8165084670470000722B00087C
:1005F00010B5014600208B698A6A4FF0C07453B170
:10060000B3F5005F15D072B1012A0CD0022A0AD0CE
:10061000032A09D104E01AB1012A06D0022A03D123
:10062000C96AC90100D5012010BDC96AA142FAD02A
:1006300010BD002AF7D0012AF2D0022AF3D0032AF3
:10064000F3D010BD30B50468256825F480252560F9
:10065000046863608368402B036803D09960006876
:10066000C26030BD9A600068C16030BD704772B62C
:10067000FEE7704778B50024009490F83C20012AEA
:1006800019D0012280F83C200A6807230568092A4E
:1006900013D9EE680A3A02EB420293409E43EE60A1
:1006A0000B788A680A3B03EB43039A400368DD68D2
:1006B0002A43DA6010E0022078BD2E6902EB420284
:1006C00093409E432E610B788A6803EB43039A4064
:1006D00003681D692A431A614A681F23072A13D237
:1006E00005686E6B521E02EB820293409E436E635E
:1006F0000B790A885B1E92B203EB83039A4003686E
:100700005D6B2A435A6327E005680D2A12D22E6BCF
:10071000D21F02EB820293409E432E630B790A881C
:10072000DB1F92B203EB83039A4003681D6B2A43DD
:100730001A6311E0EE6A0D3A02EB820293409E4387
:10074000EE620B790A880D3B92B203EB83039A4069
:100750000368DD6A2A43DA62164B0568144A9D4233
:1007600006D10D68122D03D1556845F480055560FA
:1007700005689D4218D10B68102B01D0112B13D1A5
:10078000536843F400035360096810290CD10A49E7
:100790000A4A0968B1FBF2F101EB8101490000E06E
:1007A000491E00910029FBD180F83C40002078BD13
:1007B00000230140002001401400002040420F00AF
:1007C00010B500681349884210D1134C40F21451FF
:1007D000208888420BD2114800F025F8104A218861
:1007E000A0F5006022F81100491C218010BD0C48C2
:1007F000903801F01DFA09480021483000F0D0FA85
:10080000064800F093F90648BDE81040483801F06A
:100810000FBA000000200140000000201800002056
:100820004C01002070470068C06C704770B50446EA
:1008300000680668456816F0020F05F020012AD00E
:1008400049B3216CC90603D4216C41F400712164C1
:10085000816811F0405F17D1217EA9B9C16A11F4F6
:10086000700F02D0816849050ED4416821F0200143
:100870004160206C20F480702064206CC00403D49C
:10088000206C40F0010020642046FFF799FF2168AA
:100890006FF01200086016F0040F05F0800132D0EE
:1008A00089B3206CC00603D4206C40F4005020644F
:1008B0002068816811F4401F1ED1816B11F4401F24
:1008C00002D08168490517D44168490514D481686C
:1008D00011F0405F10D1217E71B9416821F0800193
:1008E0004160206C20F480502064206CC00503D44B
:1008F000206C40F0010020642046FFF7BAFE21681A
:100900006FF00C00086016F0010F05F040010FD0E9
:1009100071B120680068C0070AD0206C40F48030B4
:100920002064204600F043F821686FF00100086061
:1009300016F0200F05F080610ED000290CD0606CFD
:1009400040F00200606420686FF0200505602046DA
:10095000FFF768FF2068056070BD70B504004FF0B8
:10096000000503D0206C002610B107E0012070BD07
:10097000204600F01DF8666484F83C60206CC006D8
:1009800010D4206C20F4885040F0020020642046EF
:10099000FFF74CFD6664206C20F0020040F001007F
:1009A000206400E0012584F83C60284670BD704753
:1009B00010B586B0044614216846FFF7CCFC1549F3
:1009C0002068884224D114480021026842F48072D1
:1009D0000260006800F4807005900F4814380268C7
:1009E00042F001020260006800F001000590012061
:1009F00000900320CDE901016946084800F0B2FBF0
:100A000000221146122000F021FD122000F010FDFE
:100A100006B010BD002001404438024000000240F2
:100A200018B50021009190F83C20012A07D001223E
:100A300080F83C2002689368DB0702D011E00220B6
:100A400018BD936843F001039360314A314B12683B
:100A5000B2FBF3F202EB420200E0521E0092002AC7
:100A6000FBD102689368DB0747D0036C40F2016456
:100A7000A34343F48073036453685B0505D5036C9B
:100A800023F4005343F480530364036CDB0404D564
:100A9000436C23F00603436400E0416480F83C109B
:100AA0001D4B6FF02201116001684A681B4C224304
:100AB0004A6059680068CA06194906D0884224D19C
:100AC000816811F0405F13D01FE08842F8D0154ACA
:100AD000904203D1D1F80423D206F1D0124A9042B9
:100AE00013D1D1F8041301F01F011029E8D30CE051
:100AF000816841F08041816007E0016C41F01001A4
:100B00000164416C41F001014164002018BD000006
:100B10001400002040420F00002301402000000488
:100B200000200140002101400022014090F83C10CB
:100B300001290CD0012180F83C1001688A6822F05C
:100B400001028A6001688A68D20702D00BE00220A5
:100B500070474A68064B1A404A60016C21F488517C
:100B600041F001010164002180F83C100846704703
:100B7000DFFFFFFB70477047704770B54379012B6B
:100B80001CD0012646710223037105682B6802F010
:100B9000100440F6FE72A2409343D1E900210A43BB
:100BA000A2401A432A6001680A68C023A3409A43FE
:100BB0000A60067100214171084670BD022070BDB7
:100BC00070477047704770B5040003D02079002546
:100BD00010B105E0012070BD6571204600F008F8F5
:100BE00002202071256101202071002070BD0000CD
:100BF00070B586B0054614216846FFF7ACFB1F4967
:100C00002868884238D11E480026016841F000510A
:100C10000160006800F00050059019481038016824
:100C200041F0010101600068694600F00100059093
:100C3000102000900320CDE90106124800F092FA3E
:100C4000124C114820604FF0606060604020C4E9A1
:100C5000020600012061800060618000A0618011B7
:100C6000E0614002C4E90806204600F0D9F908B165
:100C7000FFF7FDFCAC60A56306B070BD00740040DA
:100C8000403802400000024088600240740B00209F
:100C90002DE9F04104460D46174661790022069879
:100CA000012920D00126667102212171F5B1D4F805
:100CB0000CC03549CCF83C10D4F80CC03349CCF802
:100CC0004010D4F80CC03249CCF84C102168D1F84F
:100CD00000C04CF0805CC1F800C090B3042834D050
:100CE000082837D134E00220BDE8F081D4F808C0EC
:100CF0002849CCF83C10D4F808C02749CCF840105B
:100D0000D4F808C02549CCF84C102168D1F800C0AF
:100D10004CF4805CC1F800C020B1042805D008283C
:100D200008D105E02268083204E022680C3201E0B4
:100D3000226810322068016841F400510160A06807
:100D40000EE0FFE72268143204E02268183201E066
:100D500022681C322068016841F000510160E0689F
:100D6000394600F0C7F90021617120B1216941F0D5
:100D700004012161B8E721680A6805F010039E406C
:100D800032430A60B0E7000067050008B1050008BB
:100D90008F05000857050008A7050008770500081B
:100DA00070B504460068036801F010024FF48055E6
:100DB0009540AB43036020680368012505FA02F201
:100DC0009343036051B1E06800F010F820680168B7
:100DD00021F0005101602571002070BDA06800F075
:100DE00005F82068016821F40051F3E72DE9F0418E
:100DF0000446876D00F0BCFA064694F835000025DD
:100E0000022806D08020606584F834500120BDE8B7
:100E1000F0812068016821F01601016020684169B5
:100E200021F080014161206C08B9A06C20B12068DC
:100E3000016821F0080101602068016821F00101CA
:100E400001600CE000F094FA801B052807D92020EF
:100E50006065032084F8350084F83450D7E72068B3
:100E60000068C007EED194F85C103F208840B8605D
:100E7000012084F8350084F834500020C7E70000D2
:100E80002DE9F84304464FF00009CDF8009063487F
:100E90004FF41651A56D0068B0FBF1F72E6894F879
:100EA0005C10082000FA01F131420FD021680A6875
:100EB00052070BD50A6822F004020A6094F85C100D
:100EC0008840A860606D40F00100606594F85C1097
:100ED0004FF0010808FA01F0304208D02168496952
:100EE000090604D5A860606D40F00200606594F8C2
:100EF0005C1004208840304208D0216809688907C6
:100F000004D5A860606D40F00400606594F85C1042
:100F100010208840304218D021680968090714D58C
:100F2000A86020680168490304D50068000308D55B
:100F3000A16C07E00168C90503D4016821F008012C
:100F40000160216C09B12046884794F85C1020208C
:100F50008840304231D021680968C9062DD5A86083
:100F600094F8350005282068016806D0490347D564
:100F7000006800031DD4616C1CE021F016010160C3
:100F80002068416921F080014161206C08B9A06CA2
:100F900020B12068016821F00801016094F85C101C
:100FA0003F208840A86084F8358084F83490216D13
:100FB0001FE0E16B09B120468847606D00282BD007
:100FC000606DC00714D0052084F8350020680168E2
:100FD00021F0010101600098401C0090B84203D844
:100FE00020680068C007F6D184F8358084F8349012
:100FF000E16C002910D001B02046BDE8F04308475D
:101000000168C905D5D4016821F01001016084F898
:10101000358084F83490CCE7BDE8F88314000020D4
:101020002DE9F041044600F0A3F906465CB1022028
:1010300084F83500002584F834502068016821F0D8
:10104000010101600DE00120BDE8F08100F090F9A0
:10105000801B052805D920206065032084F8350011
:10106000F2E720680068C007F0D1226811682048C4
:101070000140D4E901031843D4E90336334318434C
:1010800063691843A3691843E3691843236A184343
:101090000843616A042903D1D4E90B1319430843B7
:1010A000106020684069666A20F0070130460E43F0
:1010B000012704280CD1A06A0643E06A40B120460B
:1010C000FFF796FA20B14020606584F83570BAE7E2
:1010D000206846612046FFF777FA94F85C203F21AC
:1010E00091408160656584F835700020ACE70000B0
:1010F0003F8010F02DE9F0410446866D90F83400F1
:10110000002501280DD0012084F8340094F83570B2
:101110000020012F07D084F8340002252846BDE8BE
:10112000F0810220FBE7022784F8357060652046D5
:10113000FFF788FA94F85C103F208840B060206880
:10114000016841F016010160206C20B1206801683F
:1011500041F0080101602068016841F0010101606F
:10116000DCE700002DE9F84FDFF8BCA100220125E3
:1011700003264FF00F090AF1040BAAF1040E00BF79
:101180000B6805FA02F42340A34270D10F7907F0EF
:101190000307012F01D0022F16D187684FEA4208BA
:1011A00006FA08FC27EA0C07D1F80CC00CFA08FC78
:1011B0004CEA070CC0F808C04768A7430C79C4F391
:1011C000001494403C4344600C79E443A4070AD0E3
:1011D000C4684FEA420C06FA0CF7BC438F6807FA62
:1011E0000CF72743C7600C7904F00304022C12D1DA
:1011F000D40800EB840CDCF820405707FF0E09FAF6
:1012000007F824EA0804D1F8108008FA07F848EA39
:101210000408CCF8208004684FEA420C06FA0CF768
:10122000BC430F7907F0030707FA0CF72743076061
:101230004C6814F4403F70D03C4C276847F480471A
:101240002760246822F0030704F480440094384C9B
:1012500007EB040CDCF8084897074FEA177809FAFF
:1012600008F7BC43334FB84202D1002724E054E0D2
:10127000314FB84201D101271EE0304FB84201D1B1
:10128000022719E02E4FB84201D1032714E02D4F59
:10129000B84201D104270FE02B4FB84201D10527F6
:1012A0000AE02A4FB84201D1062705E0284FB8428C
:1012B00001D1072700E0082707FA08F72743CCF8F1
:1012C0000878DAF800405746D1F804C09C435FEA3A
:1012D000CC2C00D51C433C60DBF800405F46D1F8C5
:1012E00004C09C435FEA8C2C00D51C433C60DEF8B4
:1012F00000407746D1F804C09C435FEA8C3C00D59F
:101300001C433C60084F083F3C68D1F804C09C4334
:101310005FEACC3C00D51C433C60521C102AFFF411
:101320002FAFBDE8F88F0000083C01404438024070
:10133000003001400000024000040240000802406A
:10134000000C02400010024000140240001802404D
:10135000001C0240426921EA02030A4043EA0241BA
:10136000816170470AB1816170470904FBE70000A1
:10137000014880687047000008000020024881682A
:101380000278114481607047080000200B4810B5B6
:10139000016841F400710160016841F480610160FD
:1013A000016841F480710160032000F06FF80F20A4
:1013B00000F006F800F024F8002010BD003C0240C8
:1013C00070B50D4D04464FF47A712878B1FBF0F0FA
:1013D0000A490968B1FBF0F000F0EAFA48B9102CAC
:1013E00007D200222146501E00F030F800206C6029
:1013F00070BD012070BD0000080000201400002016
:101400000A4808B5016841F480410160006800F4B1
:10141000804000900548001F016841F08051016044
:10142000006800F08050009008BD00004438024081
:10143000002809DB00F01F020121914040098000D3
:1014400000F1E020C0F8001170470000F0B40E4B2E
:101450001B680C46C3F30223C3F10705042D00D912
:101460000425191D072901D2002300E0DB1E0126F7
:1014700006FA05F1491E214099409E40761E16400D
:101480003143F0BC00F028BF0CED00E0064900F04D
:10149000070208684FF6FF03184040EA0220034A9B
:1014A00010430860704700000CED00E00000FA05F2
:1014B0002DE9F0470E46050065D0DFF81481D8F815
:1014C0000000F7B200F00700B04207D288F80070C1
:1014D000D8F8000000F00700B04254D128683D4C15
:1014E000810712D5400703D5206840F4E050206002
:1014F0002878000703D5206840F460402060206809
:10150000A96820F0F000084320602878C0072DD09B
:10151000304968680839012812D0022813D00328FE
:1015200011D00968890700292DDA216821F003010B
:1015300001432160FFF71CFF814641F2883A0EE02B
:1015400009688903EFE709688901ECE7FFF710FFF5
:10155000A0EB0901514502D90320BDE8F0872068BE
:10156000696800F00C00B0EB810FEFD1D8F80010E3
:10157000404601F00701B14207D90770006800F04A
:101580000700B04201D00120E7E72878400705D5E1
:101590002068E96820F4E0500843206028780007BC
:1015A00006D52068296920F4604040EAC100206027
:1015B00000F018F82168084AC1F30311515CC840D3
:1015C0000649086006480068FFF7FAFE0020C4E7F5
:1015D000003C0240083802407A2B0008140000202A
:1015E0000C000020154810B5006810F00C021448DB
:1015F00013D04110042A0FD0082A0ED10F4C241FFB
:101600002268236802F03F025B0207D52068C0F31E
:101610008810A0FB010106E0084610BD2168C1F357
:101620008811A1FB00010023FEF71EFE2168C1F313
:101630000141491C4900B0FBF1F010BD08380240DF
:101640000024F4002DE9F84F04006ED02078DFF874
:101650004C93C007A9F104054AD009F104000168C0
:10166000C1F38101012908D00068C0F3810002287C
:101670000AD1D9F80000400206D52868800337D582
:1016800060680028E1D033E06068B0F5803F10D09A
:10169000B0F5A02F286810D020F48030286028688A
:1016A00020F4802028606068A8B1FFF761FE06463C
:1016B0000DE0286840F48030F4E740F48020286092
:1016C000F7E700BFFFF754FE801B642873D8286833
:1016D0008003F7D50CE0FFF74BFE064605E000BFA0
:1016E000FFF746FE801B6428F0D828688003F7D4F3
:1016F0002078DFF8AC8280074FF0000A3ED5A7487B
:10170000001D016811F00C0F08D00068C0F38100C3
:1017100002280BD1D9F80000400207D428688007BE
:1017200016D5E068012800D112E033E1E068B8B1D5
:101730000120C8F80000FFF71BFE064605E000BFC9
:10174000FFF716FE801B0228C0D828688007F7D54F
:101750002868216920F0F80040EAC10028600DE007
:10176000C8F800A0FFF704FE064604E0FFF700FEFD
:10177000801B02281FD828688007F7D4207800072C
:1017800022D5864F87486169703771B101210160A8
:10179000FFF7EEFD064604E0FFF7EAFD801B022896
:1017A00009D838688007F7D50EE0C0F800A0FFF729
:1017B000DFFD064605E082E0FFF7DAFD801B022828
:1017C0007DD838688007F7D42078400768D5DFF8DF
:1017D000CCB100270BF13C0BDBF80000C0000BD4B0
:1017E000DBF8001041F08051CBF80010DBF800006E
:1017F000012700F0805000906B4E3068C00510D477
:10180000306840F480703060FFF7B2FD009005E072
:10181000FFF7AEFD0099401A022850D83068C00585
:10182000F6D55E4EA0686C3601280FD005283068CA
:1018300010D020F001003060306820F004003060EB
:10184000A068B8B1FFF794FD00900FE0306840F059
:101850000100F4E740F004003060F7E7FFF788FD8F
:101860000099411A41F28830814266D83068800779
:10187000F4D50EE0FFF77CFD009007E0FFF778FD60
:101880000099411A41F28830814256D83068800769
:10189000F4D42FB1DBF8001021F08051CBF8001008
:1018A000A069C8B33D49091D0968C1F38101022936
:1018B0004AD00228504607D0C8F8600000E03CE05B
:1018C000FFF756FD04463BE04746C8F86000FFF7C7
:1018D0004FFD064605E000BFFFF74AFD801B0228CA
:1018E0002BD828688001F7D4D4E907010843A16AFE
:1018F0002E4A490802EB0141626A41EA821108431B
:1019000094F82C1040EA0161C9F8001001203866F3
:10191000FFF72EFD044606E03EE000BFFFF728FD7E
:10192000001B022809D828688001F7D534E000BFE1
:10193000FFF71EFD001B022802D90320BDE8F88F27
:1019400028688001F4D427E00128F7D0D9F80000F6
:10195000E26900F4800191421CD1226A00F03F014B
:10196000914217D147F6C071626A0140B1EB821F04
:1019700010D1A26A4FF0FF3300F4403103EB520262
:10198000B1EB024F06D194F82C1000F07060B0EB70
:10199000016F01D00120D1E70020CFE704380240D9
:1019A00000004742800E4742007000400000FFFFE9
:1019B00010B5401EB0F1807F01D3012010BD4FF063
:1019C000E02460610F21601700F086FC0020A06118
:1019D00007202061002010BD7047704770B590F857
:1019E0003C20012A32D0012480F83C40022280F8B9
:1019F0003D2003685A689D6822F070060A683243E9
:101A00005A60134B02689A4214D0B2F1804F11D041
:101A1000104B9A420ED0104B9A420BD00F4B9A4269
:101A200008D00F4B9A4205D00E4B9A4202D00E4B73
:101A30009A4204D1496825F080031943916080F8E7
:101A40003D40002180F83C10084670BD022070BD6A
:101A5000000001400004004000080040000C00406D
:101A600000040140004001400018004010B504008F
:101A700003D094F83D0010B107E0012010BD002014
:101A800084F83C00204600F01FF8022084F83D0056
:101A9000211D206800F086FB012084F8460084F8B0
:101AA0003E0084F83F0084F8400084F8410084F848
:101AB000420084F8430084F8440084F8450084F828
:101AC0003D00002010BD000008B5184A0168184804
:101AD000914211D1016841F00101016000680022CA
:101AE00000F00100009011461920FFF7AFFCBDE89F
:101AF00008401920FFF79CBCB1F1804F0BD00D4A74
:101B0000914207D1016841F002010160006800F0D4
:101B10000200009008BD0648001F016841F0010165
:101B20000160006800F00100F3E7000000000140E0
:101B3000443802400004014090F83D10012901D0D2
:101B400001207047022180F83D1000681149884249
:101B500014D0B0F1804F11D00F4988420ED00F49F8
:101B600088420BD00E49884208D00E49884205D0E1
:101B70000D49884202D00D49884204D1816801F0A4
:101B80000701062903D0016841F00101016000202E
:101B900070470000000001400004004000080040C1
:101BA000000C0040000401400040014000180040CB
:101BB00090F83D10012901D001207047022180F8E2
:101BC0003D100168CA6842F00102CA60006811490C
:101BD000884214D0B0F1804F11D00F4988420ED006
:101BE0000E4988420BD00E49884208D00D498842E0
:101BF00005D00D49884202D00C49884204D1816841
:101C000001F00701062903D0016841F001010160DC
:101C10000020704700000140000400400008004020
:101C2000000C00400004014000400140001800404A
:101C300001680A6A41F211131A4207D10A6A9B101D
:101C40001A4203D10A6822F001020A60012180F8D9
:101C50003D100020704770B5044690F83C00002508
:101C6000012817D0012684F83C60022084F83D004A
:101C70002068826822F0770222F47F42826008683E
:101C8000502838D00DDC20284FD005DC90B3102828
:101C900011D14AE0022070BD302846D040280AD138
:101CA0003BE060282FD070280DD0B0F5805F03D0C6
:101CB000B0F5005F12D0012584F83D60002084F863
:101CC0003C00284670BDCB68D1E90121206800F0B6
:101CD000CDFA2068816841F0770109E0CB68D1E94D
:101CE0000121206800F0C2FA2068816841F4804137
:101CF0008160E1E719E0CA684968206800F0C8FA25
:101D00005021206806E0CA684968206800F0D1FACE
:101D10006021206800F0B4FACEE7CA6849682068FC
:101D200000F0B6FA40212068F4E722680146104628
:101D3000F0E7704770B50446006801694FF0000590
:101D4000C943890715D4C168C943890711D4E91E5D
:101D5000016101202077206880698007204602D039
:101D6000FFF7E7FF04E000F098F8204600F096F84F
:101D7000257720680169C943490717D4C168C94359
:101D8000490713D46FF00401016102202077206815
:101D9000806910F4407F204602D0FFF7CAFF04E0BC
:101DA00000F07BF8204600F079F82577206801697B
:101DB000C943090716D4C168C943090712D46FF093
:101DC00008010161042020772068C069800720464F
:101DD00002D0FFF7AEFF04E000F05FF8204600F00D
:101DE0005DF8257720680169C943C90617D4C16821
:101DF000C943C90613D46FF0100101610820207790
:101E00002068C06910F4407F204602D0FFF791FFA0
:101E100004E000F042F8204600F040F82577206802
:101E20000169C943C90708D1C168C943C90704D1B9
:101E3000891E0161204600F033F820680169C9431A
:101E4000090609D4C168C943090605D46FF08001A9
:101E500001612046FFF7C0FD20680169C9434906BA
:101E600009D4C168C943490605D46FF04001016136
:101E7000204600F03DF820680169C94389060BD46B
:101E8000C168C943890607D46FF02001016120466B
:101E9000BDE87040FFF7A1BD70BD704770470000FE
:101EA00038B500680E49884218D10E4800240480D5
:101EB0000D48FFF741FE0C484FF460730B4A0021B8
:101EC0005C380094FEF7E4FE0748A438FEF7A8FD4E
:101ED000BDE8384004484830FFF72EBE38BD00004A
:101EE0000000014000000020BC0000207224000817
:101EF0007047FEE77FB500241648009401940294D1
:101F00001349039401604FF48031C0E901140125A5
:101F10000461057680F820400903C162C5614FF075
:101F20006061C460816280F830404461FEF715FD55
:101F300008B172B6FEE7CDE900456946054802944E
:101F4000FEF798FB002801D072B6FEE77FBD0000C7
:101F5000002001401800002030B587B014216846E9
:101F6000FEF7F9F911480024016841F08001016091
:101F7000016801F080010591016841F001010160F3
:101F800000680B4D00F001000590224640212846D4
:101F9000FFF7E8F9402000900120CDE901046946EF
:101FA00028460394FFF7DEF807B030BD3038024012
:101FB0000000024010B586B0002418480094019437
:101FC00002940394049414490594016042F20F7141
:101FD000C0E9011441F63F71C0E903144461846112
:101FE000FFF744FD08B172B6FEE74FF48050009051
:101FF00069460A48FFF72FFE08B172B6FEE704945F
:1020000004A906480594FFF7E9FC002801D072B640
:10201000FEE706B010BD0000000001407400002083
:1020200010B586B0002416480094019402940394DD
:1020300004944FF080410594C0E900147C21C0E96C
:10204000024104618461FFF711FD08B172B6FEE739
:102050004FF48050009069460948FFF7FCFD08B135
:1020600072B6FEE72020CDE9040404A90448FFF776
:10207000B5FC002801D072B6FEE706B010BD000026
:10208000BC00002010B586B00024174800940194CD
:1020900002940394049413490594C0E900147C212C
:1020A000C0E90241046144618461FFF7DFFC08B1CB
:1020B00072B6FEE74FF48050009069460A48FFF779
:1020C000CAFD08B172B6FEE72020CDE9040404A9D8
:1020D0000548FFF783FC002801D072B6FEE706B082
:1020E00010BD00000004014004010020FEE7FEE7EF
:1020F00070477047FFF742B930B593B0302168465A
:10210000FEF729F914210CA8FEF725F91C48002533
:10211000016841F080510160006800F0805011902A
:102120001848016841F4804101600068022400F40D
:102130008040119001200090000401908001CDE9C1
:10214000064008AA0420502182E813000B9068463C
:10215000FFF778FA08B172B6FEE70CA90F2081E804
:1021600031004FF48050CDE90F0502210CA8FFF794
:102170009FF9002801D072B6FEE713B030BD000011
:1021800040380240007000400248016841F470018C
:102190000160704788ED00E00148FFF7CBBD00000B
:1021A00074000020F0B50268254C264D264E274FBE
:1021B000274B4FF0804CA04209D0604507D0A84281
:1021C00005D0B04203D0B84201D0984204D122F0E9
:1021D000700E4A6842EA0E02A0421BD0604519D038
:1021E000A84217D0B04215D0B84213D0984211D0AF
:1021F000184DA8420ED0184DA8420BD0174DA8423A
:1022000008D0174DA84205D0164DA84202D0164D51
:10221000A84203D122F44075CA682A434D6922F0CE
:1022200080022A4302608A68C2620A688262A0420F
:1022300001D0984201D10969016301214161F0BDDA
:10224000000001400004004000080040000C004075
:1022500000040140004001400044014000480140AA
:1022600000180040001C00400020004010B58468A9
:1022700042EA032224F47F440A432243826010BDD1
:10228000826822F070020A4342F0070181607047C1
:1022900010B5036A046A24F001040462846924F01E
:1022A000F00444EA021423F00A020A438461026241
:1022B00010BD10B5036A23F0100303628369046A3A
:1022C00023F4704343EA023224F0A00343EA0111ED
:1022D0008261016210BDFEE70907090E002804DBD8
:1022E00000F1E02080F80014704700F00F0000F1CA
:1022F000E02080F8141D7047F0B5224C86B0002213
:1023000062600492059213464FF4607740F21455D0
:1023100002920392ADF8002018E000BFBDF8006003
:102320001E440296AE420CDA30F916C0BDF80060C9
:10233000DDF80CE031F91660A6F500660CFB16E638
:102340000396BDF80060761CADF80060BDF8006033
:10235000BE42E3D3039E66606668DDF810C0664542
:1023600002DD6668CDE904635B1C9BB2AB42D0D34F
:10237000059834214843642190FBF1F0608006B059
:10238000F0BD0000000000201CB5FEF7FFFFFFF7C6
:10239000B3FEFFF7E1FD2E480024016841F400116F
:1023A00001600068224600F40010009021461020D1
:1023B000FFF74CF81020FFF73BF827490094254819
:1023C000019408600846FEF7FEFB08B172B6FEE70E
:1023D0002420CDE90004002269461F48FEF7CDFB0A
:1023E00008B172B6FEE7FFF71BFEFFF7E3FDFFF74C
:1023F00081FDFFF747FE18485C30FFF79DFB4FF467
:102400006073164A002114480094FEF741FC1248FC
:102410004838FEF705FB1048A430FFF78DFB0E4847
:102420001430FFF7C5FB0E4D0E4C40F21456402100
:102430002046FEF78FFF2888B04204D1064807499E
:10244000EC30FFF759FF40212046FEF783FFEEE70F
:102450003038024000740040600000207224000800
:1024600000000020000002404FF04070E1EE100A32
:10247000704700086508CA082E099209F509560A2E
:10248000B60A150B710BCC0B240C790CCB0C1B0D65
:10249000670DB00DF60D370E750EAF0EE40E150F6D
:1024A000420F6A0F8E0FAD0FC70FDC0FEC0FF70F47
:1024B000FE0FFF0FFB0FF20FE50FD20FBA0F9E0FAB
:1024C0007D0F570F2C0FFD0ECA0E920E570E170ED2
:1024D000D30D8C0D420DF40CA30C4F0CF80B9F0B7D
:1024E000430BE60A870A260AC4096009FC08970814
:1024F0003208CD07680703079F063B06D905780514
:102500001905BC0460040704B0035C030B03BD029F
:1025100073022C02E801A8016D0135010201D3000C
:10252000A8008200610045002D001A000D00040083
:102530000000010008001300230038005200710061
:102540009500BD00EA001B0150018A01C801090283
:102550004F029802E40234038603DB0333048E0443
:10256000EA044905A9050A066D06D10635079A074A
:10257000FF0700086508CA082E099209F509560ADE
:10258000B60A150B710BCC0B240C790CCB0C1B0D64
:10259000670DB00DF60D370E750EAF0EE40E150F6C
:1025A000420F6A0F8E0FAD0FC70FDC0FEC0FF70F46
:1025B000FE0FFF0FFB0FF20FE50FD20FBA0F9E0FAA
:1025C0007D0F570F2C0FFD0ECA0E920E570E170ED1
:1025D000D30D8C0D420DF40CA30C4F0CF80B9F0B7C
:1025E000430BE60A870A260AC4096009FC08970813
:1025F0003208CD07680703079F063B06D905780513
:102600001905BC0460040704B0035C030B03BD029E
:1026100073022C02E801A8016D0135010201D3000B
:10262000A8008200610045002D001A000D00040082
:102630000000010008001300230038005200710060
:102640009500BD00EA001B0150018A01C801090282
:102650004F029802E40234038603DB0333048E0442
:10266000EA044905A9050A066D06D10635079A0749
:10267000FF0700086508CA082E099209F509560ADD
:10268000B60A150B710BCC0B240C790CCB0C1B0D63
:10269000670DB00DF60D370E750EAF0EE40E150F6B
:1026A000420F6A0F8E0FAD0FC70FDC0FEC0FF70F45
:1026B000FE0FFF0FFB0FF20FE50FD20FBA0F9E0FA9
:1026C0007D0F570F2C0FFD0ECA0E920E570E170ED0
:1026D000D30D8C0D420DF40CA30C4F0CF80B9F0B7B
:1026E000430BE60A870A260AC4096009FC08970812
:1026F0003208CD07680703079F063B06D905780512
:102700001905BC0460040704B0035C030B03BD029D
:1027100073022C02E801A8016D0135010201D3000A
:10272000A8008200610045002D001A000D00040081
:10273000000001000800130023003800520071005F
:102740009500BD00EA001B0150018A01C801090281
:102750004F029802E40234038603DB0333048E0441
:10276000EA044905A9050A066D06D10635079A0748
:10277000FF07FF079A073507D1066D060A06A90568
:102780004905EA048E043304DB0386033403E402C0
:1027900098024F020902C8018A0150011B01EA0098
:1027A000BD0095007100520038002300130008009E
:1027B0000100000004000D001A002D00450061001A
:1027C0008200A800D300020135016D01A801E801D3
:1027D0002C027302BD020B035C03B0030704600408
:1027E000BC0419057805D9053B069F060307680751
:1027F000CD0732089708FC086009C409260A870A31
:10280000E60A430B9F0BF80B4F0CA30CF40C420D84
:102810008C0DD30D170E570E920ECA0EFD0E2C0FF7
:10282000570F7D0F9E0FBA0FD20FE50FF20FFB0F60
:10283000FF0FFE0FF70FEC0FDC0FC70FAD0F8E0F62
:102840006A0F420F150FE40EAF0E750E370EF60D20
:10285000B00D670D1B0DCB0C790C240CCC0B710B40
:10286000150BB60A560AF50992092E09CA08650819
:102870000008FF079A073507D1066D060A06A90565
:102880004905EA048E043304DB0386033403E402BF
:1028900098024F020902C8018A0150011B01EA0097
:1028A000BD0095007100520038002300130008009D
:1028B0000100000004000D001A002D004500610019
:1028C0008200A800D300020135016D01A801E801D2
:1028D0002C027302BD020B035C03B0030704600407
:1028E000BC0419057805D9053B069F060307680750
:1028F000CD0732089708FC086009C409260A870A30
:10290000E60A430B9F0BF80B4F0CA30CF40C420D83
:102910008C0DD30D170E570E920ECA0EFD0E2C0FF6
:10292000570F7D0F9E0FBA0FD20FE50FF20FFB0F5F
:10293000FF0FFE0FF70FEC0FDC0FC70FAD0F8E0F61
:102940006A0F420F150FE40EAF0E750E370EF60D1F
:10295000B00D670D1B0DCB0C790C240CCC0B710B3F
:10296000150BB60A560AF50992092E09CA08650818
:10297000000800086508CA082E099209F509560AD8
:10298000B60A150B710BCC0B240C790CCB0C1B0D60
:10299000670DB00DF60D370E750EAF0EE40E150F68
:1029A000420F6A0F8E0FAD0FC70FDC0FEC0FF70F42
:1029B000FE0FFF0FFB0FF20FE50FD20FBA0F9E0FA6
:1029C0007D0F570F2C0FFD0ECA0E920E570E170ECD
:1029D000D30D8C0D420DF40CA30C4F0CF80B9F0B78
:1029E000430BE60A870A260AC4096009FC0897080F
:1029F0003208CD07680703079F063B06D90578050F
:102A00001905BC0460040704B0035C030B03BD029A
:102A100073022C02E801A8016D0135010201D30007
:102A2000A8008200610045002D001A000D0004007E
:102A3000000001000800130023003800520071005C
:102A40009500BD00EA001B0150018A01C80109027E
:102A50004F029802E40234038603DB0333048E043E
:102A6000EA044905A9050A066D06D10635079A0745
:102A7000FF07FF079A073507D1066D060A06A90565
:102A80004905EA048E043304DB0386033403E402BD
:102A900098024F020902C8018A0150011B01EA0095
:102AA000BD0095007100520038002300130008009B
:102AB0000100000004000D001A002D004500610017
:102AC0008200A800D300020135016D01A801E801D0
:102AD0002C027302BD020B035C03B0030704600405
:102AE000BC0419057805D9053B069F06030768074E
:102AF000CD0732089708FC086009C409260A870A2E
:102B0000E60A430B9F0BF80B4F0CA30CF40C420D81
:102B10008C0DD30D170E570E920ECA0EFD0E2C0FF4
:102B2000570F7D0F9E0FBA0FD20FE50FF20FFB0F5D
:102B3000FF0FFE0FF70FEC0FDC0FC70FAD0F8E0F5F
:102B40006A0F420F150FE40EAF0E750E370EF60D1D
:102B5000B00D670D1B0DCB0C790C240CCC0B710B3D
:102B6000150BB60A560AF50992092E09CA08650816
:102B700000080006101600061016000000000000F5
:102B8000000001020304060708090000AC2B00083E
:102B90000000002018000000C4010008C42B000839
:102BA0001800002020120000E001000800000000D2
:102BB0000000000001000000100000000000000004
:042BC0000024F400F9
:040000050800018965
:00000001FF
