:020000040800F2
:1000000040120020290200087B2400085F2100081C
:10001000792400085505000889290008000000001F
:100020000000000000000000000000007F24000825
:100030006D060008000000007D24000881240008EF
:10004000430200084302000843020008430200087C
:10005000430200084302000843020008430200086C
:10006000430200084302000843020008430200085C
:10007000430200084302000843020008430200084C
:10008000BD050008430200082104000843020008DF
:10009000430200084302000843020008430200082C
:1000A0004302000825250008430200084302000817
:1000B000430200084302000843020008430200080C
:1000C00043020008430200084302000843020008FC
:1000D00043020008430200084302000843020008EC
:1000E00043020008430200084302000843020008DC
:1000F00043020008430200084302000843020008CC
:1001000043020008430200084302000843020008BB
:1001100043020008430200084302000843020008AB
:10012000430200084302000843020008430200089B
:10013000430200084302000843020008430200088B
:10014000430200084302000843020008430200087B
:10015000430200084302000843020008430200086B
:10016000430200084302000843020008430200085B
:100170004302000843020008430200080000000098
:10018000430200084302000800F002F800F03CF8C7
:100190000AA090E8000C82448344AAF10107DA45E2
:1001A00001D100F031F8AFF2090EBAE80F0013F0F8
:1001B000010F18BFFB1A43F0010318477C380000F9
:1001C0009C380000103A24BF78C878C1FAD852078A
:1001D00024BF30C830C144BF04680C6070470000C1
:1001E0000023002400250026103A28BF78C1FBD840
:1001F000520728BF30C148BF0B6070471FB503F0DE
:10020000C5F81FBD10B510BD00F0CFF81146FFF7BF
:10021000F5FF02F0A5FC00F0EDF803B4FFF7F2FFE4
:1002200003BC00F0F5F80000094880470948004782
:10023000FEE7FEE7FEE7FEE7FEE7FEE7FEE7FEE796
:10024000FEE7FEE704480549054A064B70470000F3
:100250001525000889010008400C002040120020EC
:10026000400E0020400E002053EA020C00F069808E
:100270002DE9F04B4FF00006002B1FBFB3FA83F5BA
:1002800003FA05F424FA05F65E4012BF1643B2FAEB
:1002900082F502FA05F4C5F120051EBF22FA05FC1D
:1002A00044EA0C04203556EA044C4FEA144418BFC3
:1002B000641C4FF000084FF00009904271EB030CF2
:1002C00039D3002919BFB1FA81F701FA07F6B0FA5C
:1002D00080F700FA07F6C7F120071EBF20FA07FCD7
:1002E00046EA0C062037B6FBF4FCA7EB0507103FE7
:1002F00007F01F0BCBF120060CFA0BFB2CFA06F6CD
:1003000044BFB3460026202FA4BF5E464FF0000B2B
:100310005BEA060C08BF4FF0010B19EB0B09ABFBB6
:10032000027C48EB0608C01B06FB02CC0BFB03CC8F
:1003300071EB0C01C1E70B46024641464846BDE859
:10034000F08B13B54FF000004FF00001AFF30080C9
:10035000BDE81C4070474FF0000200B513469446BC
:100360009646203922BFA0E80C50A0E80C50B1F10D
:100370002001BFF4F7AF090728BFA0E80C5048BF21
:100380000CC05DF804EB890028BF40F8042B08BFBF
:10039000704748BF20F8022B11F0804F18BF00F8BB
:1003A000012B7047704770477047754600F02CF876
:1003B000AE4605006946534620F00700854618B052
:1003C00020B5FFF73FFFBDE820404FF000064FF09B
:1003D00000074FF000084FF0000B21F00701AC467A
:1003E000ACE8C009ACE8C009ACE8C009ACE8C00999
:1003F0008D46704710B50446AFF300802046BDE837
:100400001040FFF70ABF000000487047E00B0020D3
:1004100001491820ABBEFEE726000200704700002D
:10042000014800F005BA000020000020464910B540
:100430004A6822F440324A604A6843681A434A6074
:1004400001684A6822F480724A6001684A68036958
:1004500042EA03224A6001684A6822F040724A6018
:1004600001684A6883681A434A6001688A6822F40E
:1004700000628A6001688A68C3681A438A60816A78
:100480006FF07062D14201688A6822F070628A60FF
:1004900001688A680CD0836A1A438A6001688A6896
:1004A00022F040528A6001688A68C36A1A4301E0F8
:1004B00022F040528A6001688A6822F002028A6053
:1004C00001688A68037E42EA43028A6090F820103D
:1004D000002901684A680FD042F400624A6001684E
:1004E0004A6822F460424A6001684A68174C436ACD
:1004F00004EB43331A4301E022F400624A600168CE
:10050000CA6A22F47002CA620168CA6A838B104CFC
:1005100004EB03531A43CA6201688A6822F400722A
:100520008A6001688A6890F8303042EA43228A6023
:1005300001688A6822F480628A6001688A6840697A
:1005400042EA8020886010BD0023014000E0FFFFE8
:100550000000F0FFFEE710B5846B204600F032FB90
:100560000120207110BD10B5846B204600F004FB03
:100570000120207110BD10B5846B206940F004008B
:100580002061204600F020FB0120207110BD10B535
:10059000846B206940F004002061204600F0EEFAF0
:1005A0000120207110BD10B5806B00F00CFB10BD58
:1005B00010B5806B00F0E1FA10BD0000014800F0BA
:1005C000F1BB0000800B002001681823CAB2103A6A
:1005D000B2FBF3F2054B6FF30901032A9B5CC36581
:1005E00000D9091D8165084670470000183A0008C7
:1005F00010B5014600208B698A6A4FF0C07453B170
:10060000B3F5005F15D072B1012A0CD0022A0AD0CE
:10061000032A09D104E01AB1012A06D0022A03D123
:10062000C96AC90100D5012010BDC96AA142FAD02A
:1006300010BD002AF7D0012AF2D0022AF3D0032AF3
:10064000F3D010BD30B50468256825F480252560F9
:10065000046863608368402B036803D09960006876
:10066000C26030BD9A600068C16030BD704772B62C
:10067000FEE7704778B50024009490F83C20012AEA
:1006800019D0012280F83C200A6807230568092A4E
:1006900013D9EE680A3A02EB420293409E43EE60A1
:1006A0000B788A680A3B03EB43039A400368DD68D2
:1006B0002A43DA6010E0022078BD2E6902EB420284
:1006C00093409E432E610B788A6803EB43039A4064
:1006D00003681D692A431A614A681F23072A13D237
:1006E00005686E6B521E02EB820293409E436E635E
:1006F0000B790A885B1E92B203EB83039A4003686E
:100700005D6B2A435A6327E005680D2A12D22E6BCF
:10071000D21F02EB820293409E432E630B790A881C
:10072000DB1F92B203EB83039A4003681D6B2A43DD
:100730001A6311E0EE6A0D3A02EB820293409E4387
:10074000EE620B790A880D3B92B203EB83039A4069
:100750000368DD6A2A43DA62164B0568144A9D4233
:1007600006D10D68122D03D1556845F480055560FA
:1007700005689D4218D10B68102B01D0112B13D1A5
:10078000536843F400035360096810290CD10A49E7
:100790000A4A0968B1FBF2F101EB8101490000E06E
:1007A000491E00910029FBD180F83C40002078BD13
:1007B00000230140002001401C00002040420F00A7
:1007C00010B50068134988420DD1134C6088B0F50C
:1007D0001A7F09D2114800F028F8114A618842F8BE
:1007E0002100491C618010BD0E4C002202212046D0
:1007F00000F05CFD00220421204600F057FD00229D
:100800000821204600F052FDBDE81040034800F0EA
:100810008FB90000002001400000002020000020CF
:10082000E00100200008024070470068C06C70477B
:1008300070B5044600680668456816F0020F05F0BA
:1008400020012AD049B3216CC90603D4216C41F49C
:1008500000712164816811F0405F17D1217EA9B930
:10086000C16A11F4700F02D0816849050ED4416845
:1008700021F020014160206C20F480702064206C05
:10088000C00403D4206C40F0010020642046FFF730
:1008900097FF21686FF01200086016F0040F05F052
:1008A000800132D089B3206CC00603D4206C40F4A0
:1008B000005020642068816811F4401F1ED1816BB4
:1008C00011F4401F02D08168490517D441684905D9
:1008D00014D4816811F0405F10D1217E71B9416854
:1008E00021F080014160206C20F480502064206C55
:1008F000C00503D4206C40F0010020642046FFF7BF
:10090000B8FE21686FF00C00086016F0010F05F0CA
:1009100040010FD071B120680068C0070AD0206C78
:1009200040F480302064204600F043F821686FF0E6
:100930000100086016F0200F05F080610ED000293C
:100940000CD0606C40F00200606420686FF02005FD
:1009500005602046FFF768FF2068056070BD70B530
:1009600004004FF0000503D0206C002610B107E012
:10097000012070BD204600F01DF8666484F83C60DC
:10098000206CC00610D4206C20F4885040F0020087
:1009900020642046FFF74AFD6664206C20F00200C8
:1009A00040F00100206400E0012584F83C60284606
:1009B00070BD704710B586B0044614216846FFF735
:1009C000CAFC15492068884224D1144800210268D5
:1009D00042F480720260006800F4807005900F4855
:1009E0001438026842F001020260006800F0010061
:1009F0000590012000900320CDE9010169460848D7
:100A000000F054FB00221146122000F0C3FC12201B
:100A100000F0B2FC06B010BD002001404438024096
:100A20000000024018B50021009190F83C20012AF6
:100A300007D0012280F83C2002689368DB0702D0CF
:100A400011E0022018BD936843F001039360314A1E
:100A5000314B1268B2FBF3F202EB420200E0521E8D
:100A60000092002AFBD102689368DB0747D0036C31
:100A700040F20164A34343F48073036453685B054D
:100A800005D5036C23F4005343F480530364036CD3
:100A9000DB0404D5436C23F00603436400E04164A7
:100AA00080F83C101D4B6FF02201116001684A680C
:100AB0001B4C22434A6059680068CA06194906D08F
:100AC000884224D1816811F0405F13D01FE0884232
:100AD000F8D0154A904203D1D1F80423D206F1D0C0
:100AE000124A904213D1D1F8041301F01F011029CA
:100AF000E8D30CE0816841F08041816007E0016C3F
:100B000041F010010164416C41F001014164002099
:100B100018BD00001C00002040420F0000230140CF
:100B2000200000040020014000210140002201407B
:100B300090F83C1001290CD0012180F83C1001688C
:100B40008A6822F001028A6001688A68D20702D0AE
:100B50000BE0022070474A68064B1A404A60016C5D
:100B600021F4885141F001010164002180F83C101A
:100B700008467047DFFFFFFB70477047704770B54E
:100B80004379012B1CD001264671022303710568AD
:100B90002B6802F0100440F6FE72A2409343D1E9A4
:100BA00000210A43A2401A432A6001680A68C02350
:100BB000A3409A430A60067100214171084670BD46
:100BC000022070BD70477047704770B5040003D0B5
:100BD0002079002510B105E0012070BD6571204627
:100BE00000F008F80220207125610120207100200A
:100BF00070BD000070B586B0054614216846FFF749
:100C0000AAFB1F492868884237D11E480026016880
:100C100041F000510160006800F000500590194853
:100C20001038016841F0010101600068694600F078
:100C300001000590102000900320CDE90106124824
:100C400000F034FA124C114820604FF06060606090
:100C50004020C4E90206000120618000606180003C
:100C6000C4E90606C000C4E90806204600F06AF997
:100C700008B1FFF7FCFCAC60A56306B070BD0000D6
:100C8000007400404038024000000240886002408A
:100C9000800B00202DE9F04104460D46174661798E
:100CA00000220698012920D00126667102212171B7
:100CB000F5B1D4F80CC03549CCF83C10D4F80CC0D0
:100CC0003349CCF84010D4F80CC03249CCF84C1061
:100CD0002168D1F800C04CF0805CC1F800C090B32E
:100CE000042834D0082837D134E00220BDE8F08150
:100CF000D4F808C02849CCF83C10D4F808C02749DB
:100D0000CCF84010D4F808C02549CCF84C10216824
:100D1000D1F800C04CF4805CC1F800C020B10428B8
:100D200005D0082808D105E02268083204E02268CE
:100D30000C3201E0226810322068016841F4005151
:100D40000160A0680EE0FFE72268143204E0226828
:100D5000183201E022681C322068016841F000511D
:100D60000160E068394600F057F90021617120B157
:100D7000216941F004012161B8E721680A6805F0A2
:100D800010039E4032430A60B0E700006705000888
:100D9000B10500088F05000857050008A7050008E1
:100DA000770500082DE9F84304464FF00009CDF817
:100DB000009063484FF41651A56D0068B0FBF1F741
:100DC0002E6894F85C10082000FA01F131420FD02F
:100DD00021680A6852070BD50A6822F004020A60EB
:100DE00094F85C108840A860606D40F00100606578
:100DF00094F85C104FF0010808FA01F0304208D076
:100E000021684969090604D5A860606D40F00200B8
:100E1000606594F85C1004208840304208D0216856
:100E20000968890704D5A860606D40F0040060651A
:100E300094F85C1010208840304218D0216809686E
:100E4000090714D5A86020680168490304D5006823
:100E5000000308D5A16C07E00168C90503D4016847
:100E600021F008010160216C09B12046884794F8FF
:100E70005C1020208840304231D021680968C906C2
:100E80002DD5A86094F8350005282068016806D0A3
:100E9000490347D5006800031DD4616C1CE021F0B4
:100EA000160101602068416921F080014161206CD8
:100EB00008B9A06C20B12068016821F00801016028
:100EC00094F85C103F208840A86084F8358084F84E
:100ED0003490216D1FE0E16B09B120468847606DB9
:100EE00000282BD0606DC00714D0052084F8350091
:100EF0002068016821F0010101600098401C009009
:100F0000B84203D820680068C007F6D184F835805D
:100F100084F83490E16C002910D001B02046BDE87F
:100F2000F04308470168C905D5D4016821F01001D4
:100F3000016084F8358084F83490CCE7BDE8F8830C
:100F40001C0000202DE9F041044600F0B5F90646EA
:100F50005CB1022084F83500002584F83450206804
:100F6000016821F0010101600DE00120BDE8F08180
:100F700000F0A2F9801B052805D920206065032018
:100F800084F83500F2E720680068C007F0D12268D5
:100F9000116820480140D4E901031843D4E903361D
:100FA0003343184363691843A3691843E36918433B
:100FB000236A18430843616A042903D1D4E90B1357
:100FC00019430843106020684069666A20F00701F1
:100FD00030460E43012704280CD1A06A0643E06A7C
:100FE00040B12046FFF704FB20B14020606584F843
:100FF0003570BAE7206846612046FFF7E5FA94F8B5
:101000005C203F2191408160656584F83570002047
:10101000ACE700003F8010F02DE9F0410446866DFA
:1010200090F83400002501280DD0012084F8340008
:1010300094F835700020012F07D084F83400022581
:101040002846BDE8F0810220FBE7022784F83570CE
:1010500060652046FFF7F6FA94F85C103F20884060
:10106000B0602068016841F016010160206C20B179
:101070002068016841F0080101602068016841F0C2
:1010800001010160DCE7000070B5044600F014F9CE
:101090000546601C02D004480078044400F00CF9B6
:1010A000401BA042FAD370BD100000202DE9F84F7C
:1010B000DFF8BCA10022012503264FF00F090AF139
:1010C000040BAAF1040E00BF0B6805FA02F42340DA
:1010D000A34270D10F7907F00307012F01D0022F2F
:1010E00016D187684FEA420806FA08FC27EA0C077F
:1010F000D1F80CC00CFA08FC4CEA070CC0F808C088
:101100004768A7430C79C4F3001494403C434460FF
:101110000C79E443A4070AD0C4684FEA420C06FAEB
:101120000CF7BC438F6807FA0CF72743C7600C79AC
:1011300004F00304022C12D1D40800EB840CDCF878
:1011400020405707FF0E09FA07F824EA0804D1F8EF
:10115000108008FA07F848EA0408CCF820800468F0
:101160004FEA420C06FA0CF7BC430F7907F003076D
:1011700007FA0CF7274307604C6814F4403F70D01F
:101180003C4C276847F480472760246822F0030717
:1011900004F480440094384C07EB040CDCF8084855
:1011A00097074FEA177809FA08F7BC43334FB8425C
:1011B00002D1002724E054E0314FB84201D1012789
:1011C0001EE0304FB84201D1022719E02E4FB8423D
:1011D00001D1032714E02D4FB84201D104270FE0BD
:1011E0002B4FB84201D105270AE02A4FB84201D15E
:1011F000062705E0284FB84201D1072700E008275D
:1012000007FA08F72743CCF80878DAF80040574681
:10121000D1F804C09C435FEACC2C00D51C433C6051
:10122000DBF800405F46D1F804C09C435FEA8C2C99
:1012300000D51C433C60DEF800407746D1F804C07E
:101240009C435FEA8C3C00D51C433C60084F083F40
:101250003C68D1F804C09C435FEACC3C00D51C43F9
:101260003C60521C102AFFF42FAFBDE8F88F00003D
:10127000083C014044380240003001400000024078
:101280000004024000080240000C0240001002402E
:101290000014024000180240001C0240426921EA8A
:1012A00002030A4043EA0241816170470AB1816149
:1012B00070470904FBE700000148806870470000A0
:1012C0001000002002488168027811448160704754
:1012D000100000200B4810B5016841F40071016056
:1012E000016841F480610160016841F4807101602E
:1012F000032000F06FF80F2000F006F800F024F84B
:10130000002010BD003C024070B50D4D04464FF466
:101310007A712878B1FBF0F00A490968B1FBF0F066
:1013200000F00AFB48B9102C07D200222146501EBB
:1013300000F030F800206C6070BD012070BD00002E
:10134000100000201C0000200A4808B5016841F484
:1013500080410160006800F4804000900548001F53
:10136000016841F080510160006800F080500090F9
:1013700008BD000044380240002809DB00F01F02CD
:10138000012191404009800000F1E020C0F80011E7
:1013900070470000F0B40E4B1B680C46C3F30223E9
:1013A000C3F10705042D00D90425191D072901D211
:1013B000002300E0DB1E012606FA05F1491E21404C
:1013C00099409E40761E16403143F0BC01F0DDBAD4
:1013D0000CED00E0064900F0070208684FF6FF0335
:1013E000184040EA0220034A10430860704700009A
:1013F0000CED00E00000FA052DE9F0470E4605006F
:1014000065D0DFF81481D8F80000F7B200F00700CB
:10141000B04207D288F80070D8F8000000F007004A
:10142000B04254D128683D4C810712D5400703D5FE
:10143000206840F4E05020602878000703D5206839
:1014400040F4604020602068A96820F0F000084364
:1014500020602878C0072DD03049686808390128F5
:1014600012D0022813D0032811D009688907002957
:101470002DDA216821F0030101432160FFF71CFFF1
:10148000814641F2883A0EE009688903EFE709686E
:101490008901ECE7FFF710FFA0EB0901514502D9E4
:1014A0000320BDE8F0872068696800F00C00B0EB0D
:1014B000810FEFD1D8F80010404601F00701B1428A
:1014C00007D90770006800F00700B04201D0012082
:1014D000E7E72878400705D52068E96820F4E05060
:1014E000084320602878000706D52068296920F481
:1014F000604040EAC100206000F038F82168084AE6
:10150000C1F30311515CC8400649086006480068F1
:10151000FFF7FAFE0020C4E7003C02400838024012
:10152000203A00081C00002014000020044805494F
:1015300000680968044AC1F38221515CC8407047C1
:101540001C00002008380240303A000804480549D1
:1015500000680968044AC1F34231515CC8407047D1
:101560001C00002008380240303A0008154810B529
:10157000006810F00C02144813D04110042A0FD058
:10158000082A0ED10F4C241F2268236802F03F0264
:101590005B0207D52068C0F38810A0FB010106E0BC
:1015A000084610BD2168C1F38811A1FB000100238A
:1015B000FEF75AFE2168C1F30141491C4900B0FB06
:1015C000F1F010BD083802400024F4002DE9F84F76
:1015D00004006ED02078DFF84C93C007A9F1040511
:1015E0004AD009F104000168C1F38101012908D042
:1015F0000068C0F3810002280AD1D9F80000400237
:1016000006D52868800337D560680028E1D033E02C
:101610006068B0F5803F10D0B0F5A02F286810D0DA
:1016200020F480302860286820F4802028606068DA
:10163000A8B1FFF741FE06460DE0286840F480306F
:10164000F4E740F480202860F7E700BFFFF734FE9E
:10165000801B642873D828688003F7D50CE0FFF757
:101660002BFE064605E000BFFFF726FE801B642820
:10167000F0D828688003F7D42078DFF8AC828007A0
:101680004FF0000A3ED5A748001D016811F00C0F6D
:1016900008D00068C0F3810002280BD1D9F80000FF
:1016A000400207D42868800716D5E068012800D1D9
:1016B00012E033E1E068B8B10120C8F80000FFF79C
:1016C000FBFD064605E000BFFFF7F6FD801B022884
:1016D000C0D828688007F7D52868216920F0F8006D
:1016E00040EAC10028600DE0C8F800A0FFF7E4FD63
:1016F000064604E0FFF7E0FD801B02281FD828689B
:101700008007F7D42078000722D5864F8748616983
:10171000703771B101210160FFF7CEFD064604E08C
:10172000FFF7CAFD801B022809D838688007F7D563
:101730000EE0C0F800A0FFF7BFFD064605E082E01E
:10174000FFF7BAFD801B02287DD838688007F7D4E0
:101750002078400768D5DFF8CCB100270BF13C0BAF
:10176000DBF80000C0000BD4DBF8001041F0805122
:10177000CBF80010DBF80000012700F0805000904B
:101780006B4E3068C00510D4306840F48070306013
:10179000FFF792FD009005E0FFF78EFD0099401ADB
:1017A000022850D83068C005F6D55E4EA0686C3669
:1017B00001280FD00528306810D020F001003060DB
:1017C000306820F004003060A068B8B1FFF774FD05
:1017D00000900FE0306840F00100F4E740F00400B2
:1017E0003060F7E7FFF768FD0099411A41F2883051
:1017F000814266D830688007F4D50EE0FFF75CFDC3
:10180000009007E0FFF758FD0099411A41F2883037
:10181000814256D830688007F4D42FB1DBF800102D
:1018200021F08051CBF80010A069C8B33D49091DD3
:101830000968C1F3810102294AD00228504607D025
:10184000C8F8600000E03CE0FFF736FD04463BE0EE
:101850004746C8F86000FFF72FFD064605E000BFC9
:10186000FFF72AFD801B02282BD828688001F7D4B7
:10187000D4E907010843A16A2E4A490802EB014155
:10188000626A41EA8211084394F82C1040EA01612F
:10189000C9F8001001203866FFF70EFD044606E087
:1018A0003EE000BFFFF708FD001B022809D82868AA
:1018B0008001F7D534E000BFFFF7FEFC001B0228D3
:1018C00002D90320BDE8F88F28688001F4D427E00E
:1018D0000128F7D0D9F80000E26900F480019142B4
:1018E0001CD1226A00F03F01914217D147F6C07126
:1018F000626A0140B1EB821F10D1A26A4FF0FF3340
:1019000000F4403103EB5202B1EB024F06D194F8E0
:101910002C1000F07060B0EB016F01D00120D1E716
:101920000020CFE70438024000004742800E4742C3
:10193000007000400000FFFF10B5401EB0F1807F36
:1019400001D3012010BD4FF0E02460610F2160172A
:1019500001F01BF80020A06107202061002010BDCD
:101960007047704710B590F83C20012A22D0012220
:1019700080F83C20CA688C6822F4407222434C688C
:1019800022F4806222430C6822F4006222430C6934
:1019900022F4805222434C6922F400522243C96946
:1019A000002322F480420A4301684A6480F83C30F4
:1019B000002010BD022010BD70B590F83C20012A17
:1019C00032D0012480F83C40022280F83D20036898
:1019D0005A689D6822F070060A6832435A60134BB9
:1019E00002689A4214D0B2F1804F11D0104B9A4243
:1019F0000ED0104B9A420BD00F4B9A4208D00F4B8F
:101A00009A4205D00E4B9A4202D00E4B9A4204D114
:101A1000496825F080031943916080F83D4000211A
:101A200080F83C10084670BD022070BD00000140E7
:101A30000004004000080040000C00400004014089
:101A4000004001400018004010B5040003D094F895
:101A50003D0010B107E0012010BD002084F83C00DB
:101A6000204600F01FF8022084F83D00211D206868
:101A700000F05EFD012084F8460084F83E0084F802
:101A80003F0084F8400084F8410084F8420084F864
:101A9000430084F8440084F8450084F83D000020A9
:101AA00010BD000008B51C4902681C488A4211D1CB
:101AB000016841F0010101600068002200F00100AE
:101AC000009011461920FFF765FCBDE80840192079
:101AD000FFF752BC1149091FB2F1804F08D0104BDB
:101AE0009A420ED1086840F002000860086810E0D1
:101AF000086840F001000860086800F001000090EC
:101B000008BD08498A42FBD1016841F00201016029
:101B1000006800F00200F2E7000001404438024093
:101B2000000400400004014090F83D10012901D05C
:101B300001207047022180F83D1000681149884259
:101B400014D0B0F1804F11D00F4988420ED00F4908
:101B500088420BD00E49884208D00E49884205D0F1
:101B60000D49884202D00D49884204D1816801F0B4
:101B70000701062903D0016841F00101016000203E
:101B800070470000000001400004004000080040D1
:101B9000000C0040000401400040014000180040DB
:101BA00070B5044690F83C000025012817D00126A6
:101BB00084F83C60022084F83D002068826822F0AE
:101BC000770222F47F4282600868502838D00DDC0A
:101BD00020284FD005DC90B3102811D14AE0022014
:101BE00070BD302846D040280AD13BE060282FD075
:101BF00070280DD0B0F5805F03D0B0F5005F12D033
:101C0000012584F83D60002084F83C00284670BD22
:101C1000CB68D1E90121206800F0FBFC20688168D5
:101C200041F0770109E0CB68D1E90121206800F09B
:101C3000F0FC2068816841F480418160E1E719E0AF
:101C4000CA684968206800F0B9FD5021206806E0A4
:101C5000CA684968206800F0C2FD6021206800F071
:101C6000E2FCCEE7CA684968206800F0A7FD402181
:101C70002068F4E7226801461046F0E7704770B527
:101C80000446006801694FF00005C943890715D46F
:101C9000C168C943890711D4E91E01610120207779
:101CA000206880698007204602D0FFF7E7FF04E044
:101CB00000F098F8204600F02AF92577206801699D
:101CC000C943490717D4C168C943490713D46FF002
:101CD00004010161022020772068806910F4407FB0
:101CE000204602D0FFF7CAFF04E000F07BF8204650
:101CF00000F00DF9257720680169C943090716D45A
:101D0000C168C943090712D46FF0080101610420BA
:101D100020772068C0698007204602D0FFF7AEFF19
:101D200004E000F05FF8204600F0F1F82577206825
:101D30000169C943C90617D4C168C943C90613D488
:101D40006FF010010161082020772068C06910F44D
:101D5000407F204602D0FFF791FF04E000F042F8F8
:101D6000204600F0D4F8257720680169C943C907E7
:101D700008D1C168C943C90704D1891E0161204641
:101D800000F02AF920680169C943090609D4C1682D
:101D9000C943090605D46FF0800101612046FFF7B1
:101DA000DFFD20680169C943490609D4C168C943F8
:101DB000490605D46FF040010161204600F00DF99D
:101DC00020680169C94389060BD4C168C9438906E3
:101DD00007D46FF0200101612046BDE87040FFF795
:101DE000C0BD70BD704770B5044690F83C00002639
:101DF0000D4601280FD0012084F83C006AB1042A66
:101E00001DD0082A2FD00C2A3FD00126002084F8AC
:101E10003C00304670BD022070BD206800F00CFC14
:101E20002068816941F0080181612068816921F0A1
:101E300004018161206881692A69114311E02068E9
:101E400000F02AFC2068816941F40061816120680A
:101E5000816921F480618161206881692A6941EA90
:101E600002218161D2E7206800F04CFC2068C16942
:101E700041F00801C1612068C16921F00401C1611C
:101E80002068C1692A69114311E0206800F06EFCE6
:101E90002068C16941F40061C1612068C16921F411
:101EA0008061C1612068C1692A6941EA0221C1617A
:101EB000ACE710B5040003D094F83D0010B107E082
:101EC000012010BD002084F83C00204600F01EF8E0
:101ED000022084F83D00211D206800F029FB01202C
:101EE00084F8460084F83E0084F83F0084F84000FF
:101EF00084F8410084F8420084F8430084F84400E8
:101F000084F8450084F83D00002010BD70477047FC
:101F100010B50446022249B104290ED0082913D075
:101F200094F84100012816D0012010BD94F83E001D
:101F30000128F9D184F83E200FE094F83F000128F1
:101F4000F2D184F83F2008E094F840000128EBD15A
:101F500084F8402001E084F841200122206800F04C
:101F60004BFB16492068164A884201D0904203D1A3
:101F7000436C43F4004343642068884213D0B0F1BB
:101F8000804F10D00F4988420DD00F4988420AD0A7
:101F90000E49884207D0904205D00D49884202D0B0
:101FA0000C49884204D1816801F00701062903D059
:101FB000016841F001010160002010BD00000140F6
:101FC000000401400004004000080040000C0040F4
:101FD00000400140001800407047704770B5040091
:101FE00004D094F83D00002510B106E0012070BD3A
:101FF00084F83C50204600F023F8242084F83D006B
:102000002068C16821F40051C160204600F0FAFB4D
:102010002068016921F4904101612068416921F043
:102020002A0141612068C16841F40051C160256402
:10203000202084F83D0084F83E00002070BD0000A0
:1020400010B586B0044614216846FEF784F9144999
:102050002068884221D113480021026842F0100212
:102060000260006800F0100005900E481438026805
:1020700042F001020260006800F0010005904FF498
:10208000C06000900220CDE90101032003900720E9
:10209000049069460448FFF709F806B010BD000037
:1020A0000010014044380240000002402DE9F8438E
:1020B000044690F83D001F4616460D4620284CD198
:1020C000C5B1BEB194F83C00012846D0012084F887
:1020D0003C004FF00008C4F84080212084F83D0007
:1020E000FFF7EAF8A6848146E684A068B0F5805F31
:1020F00003D004E00120BDE8F883206928B12E4612
:102100005FF0000584F83C800EE00026FAE78021AD
:10211000204600F0FDFBA0B9AEB116F8010B216816
:102120004860E08C401EE084E08C4B464FF000029B
:1021300000970028EBD14FF04001204600F0E8FB6B
:1021400030B10320D7E735F8020BC0F30800E6E70B
:10215000202084F83D000020CDE70220CBE7FEE7F9
:102160007FB5002415480094019402941249039409
:1021700001604FF48031C0E901140461047680F8F5
:1021800020400903C1620125C5614910C460816214
:1021900080F830404461FEF7E2FB08B172B6FEE71A
:1021A000CDE90045694605480294FEF763FA002828
:1021B00001D072B6FEE77FBD002001402000002064
:1021C000F0B587B014216846FEF7C5F81D48002415
:1021D000016841F080010160016801F08001059112
:1021E000016841F004010160016801F004010591FA
:1021F000016841F0010101600068134E00F0010028
:10220000059000220E213046FFF750F80F4F0022B4
:1022100040213846FFF74AF80E2000900125CDE90D
:102220000154694630460394FEF740FF4020009079
:10223000CDE90154694638460394FEF737FF07B0ED
:10224000F0BD0000303802400008024000000240AB
:1022500010B586B0002418480094019402940394A9
:10226000049414490594016042F20F71C0E901140D
:1022700040F69F71C0E9031444618461FFF7E4FBF9
:1022800008B172B6FEE74FF48050009069460A48E4
:10229000FFF786FC08B172B6FEE7049404A906486D
:1022A0000594FFF789FB002801D072B6FEE706B05F
:1022B00010BD0000000001407C00002010B586B079
:1022C00000241648009401940294039404944FF05F
:1022D00080410594C0E9001440F2F311C0E90241C5
:1022E00004618461FFF7B0FB08B172B6FEE74FF4FA
:1022F0008050009069460948FFF752FC08B172B659
:10230000FEE72020CDE9040404A90448FFF754FBAC
:10231000002801D072B6FEE706B010BDC400002050
:1023200010B58EB000240794089409940A940B9475
:102330001C2168460C94FEF70EF81D481B49C0E9A5
:10234000001440F2F311C0E9024104618461FFF717
:102350007BFB08B172B6FEE74FF48050079007A9E7
:102360001348FFF71DFC08B172B6FEE71048FFF7EF
:10237000A0FD08B172B6FEE72020CDE90B040BA941
:102380000B48FFF719FB08B172B6FEE76020CDE9F4
:10239000000402940022694605480494FFF723FDD7
:1023A000002801D072B6FEE70EB010BD0004004058
:1023B0000C01002010B596B000240F9410941194D5
:1023C000129413941C2108A81494FDF7C4FF202133
:1023D0006846FDF7C0FF27482549C0E9001440F2D0
:1023E000F311C0E90241046144618461FFF72CFBF1
:1023F00008B172B6FEE74FF480500F900FA91D4848
:10240000FFF7CEFB08B172B6FEE71A48FFF751FDA1
:1024100008B172B6FEE72020CDE9130413A91548D0
:10242000FFF7CAFA08B172B6FEE76020CDE90804EA
:102430000A940B940C940D94002208A90D480E9454
:10244000FFF7D1FC08B172B6FEE700944FF40050DC
:10245000CDE9044002940194039469460548079429
:10246000FFF780FA002801D072B6FEE716B010BD63
:102470000004014054010020FEE7FEE7704770476A
:10248000FEF720BF30B593B030216846FDF763FFFB
:1024900014210CA8FDF75FFF1C480025016841F0DE
:1024A00080510160006800F0805011901848016868
:1024B00041F4804101600068022400F480401190E2
:1024C00001200090000401908001CDE9064008AA97
:1024D0000420502182E813000B906846FFF776F83D
:1024E00008B172B6FEE70CA90F2081E831004FF465
:1024F0008050CDE90F0502210CA8FEF77DFF0028D2
:1025000001D072B6FEE713B030BD00004038024083
:10251000007000400248016841F47001016070479A
:1025200088ED00E00148FFF7AABB00007C00002016
:10253000F0B50268254C264D264E274F274B4FF00D
:10254000804CA04209D0604507D0A84205D0B042D7
:1025500003D0B84201D0984204D122F0700E4A68EC
:1025600042EA0E02A0421BD0604519D0A84217D003
:10257000B04215D0B84213D0984211D0184DA8429D
:102580000ED0184DA8420BD0174DA84208D0174DB9
:10259000A84205D0164DA84202D0164DA84203D13C
:1025A00022F44075CA682A434D6922F080022A430A
:1025B00002608A68C2620A688262A04201D09842C0
:1025C00001D10969016301214161F0BD00000140B1
:1025D0000004004000080040000C004000040140DE
:1025E0000040014000440140004801400018004004
:1025F000001C00400020004010B501F01F03012125
:10260000046A99408C430462016A9A401143016252
:1026100010BD10B5846842EA032224F47F440A43C3
:102620002243826010BD826822F070020A4342F0A9
:102630000701816070470000F0B5026A22F00102D4
:102640000262036A42688469124E24F073050C68C2
:102650002C4323F002058B682B430D4DA84201D07B
:10266000B04205D123F00807CB683B4323F00403B5
:10267000A84201D0B04205D14D6922F44072154301
:102680008A692A4342608461496841630362F0BDFC
:102690000000014000040140F0B5026A22F010027F
:1026A0000262026A436884690D6824F4E64444EADD
:1026B00005248D6822F0200242EA05120F4D104ECB
:1026C000A84201D0B04206D1CF6822F0800242EA8F
:1026D000071222F04002A84201D0B04207D14D6952
:1026E00023F4406343EA85038D6943EA850343602D
:1026F0008461496881630262F0BD0000000001400E
:1027000000040140F0B5026A22F480720262026A9B
:102710004368C46922F4007224F073050C68124EF9
:102720002C438D6842EA05220E4DA84201D0B042EA
:1027300006D1CF6822F4006242EA072222F48062C6
:10274000A84201D0B04207D14D6923F4405343EA77
:1027500005138D6943EA05134360C4614968C16389
:102760000262F0BD000001400004014030B5026A81
:1027700022F480520262046A4268C3690D6823F43D
:10278000E64343EA05238D6824F4005444EA053403
:10279000084DA84202D0084DA84204D14D6922F448
:1027A000804242EA85124260C36149680164046262
:1027B00030BD0000000001400004014010B5036A74
:1027C000046A24F001040462846924F0F00444EAF9
:1027D000021423F00A020A438461026210BD10B59C
:1027E000036A23F0100303628369046A23F47043CD
:1027F00043EA023224F0A00343EA0111826101623C
:1028000010BD000070B5044600680169E26821F45B
:102810004051114301612169A068E269084361697F
:10282000114308432168CA6849F20C639A43024382
:10283000CA6020684169A26921F440711143416175
:1028400031492068884202D03049884202D1FEF7DF
:102850007DFE01E0FEF76AFEE2690023192164258E
:102860003226B2F5004F626828D0A0FB0101930F19
:102870009200FDF7F9FC0146B0FBF5F06FF018028D
:10288000504301EB800006EB0010B0FBF5F000F0C8
:10289000F002B1FBF5F002EB0012B1FBF5F06FF0C6
:1028A0001803584301EB800006EB0010B0FBF5F075
:1028B00000F00F0021681044886070BDA0FB01018A
:1028C00092185B41FDF7D0FC0146B0FBF5F0020128
:1028D000B1FBF5F06FF01803584301EB800006EBF5
:1028E000C000B0FBF5F000F0F80002EB4002B1FBD5
:1028F000F5F0584301EB800006EBC000B0FBF5F0AB
:1029000000F00700D6E7000000100140001401406D
:102910002DE9F041984617460E460446069D27E0ED
:10292000681C25D02DB1FEF7C7FCA0EB0800A8421B
:102930001ED920680C3050E8001F21F4D07140E807
:102940000012002AF5D12068143050E8001F21F051
:10295000010140E80012002AF5D1202084F83D0052
:1029600084F83E00002084F83C000320BDE8F0819C
:102970002068006836EA000004D00020B842CFD0BA
:102980000020F3E70120F9E7FEE70907090E002818
:1029900004DB00F1E02080F80014704700F00F0025
:1029A00000F1E02080F8141D7047000000000000D6
:1029B00010B52DED020B2DED088B84B09DED0C0BA9
:1029C00051EC100B00F09EFB41EC180B9DED0C0B35
:1029D00053EC182B51EC100B00F0EEFB41EC190BF3
:1029E0000D989FED290B10F0004F53EC102B51EC7C
:1029F000190B9FED21AB9FED22BB0ED000F0BCFA6E
:102A00000ED953EC1B2B51EC190B00F045FB1CD2DB
:102A100014E000BF41EC180B17E000F0ADFA06D24D
:102A200053EC1A2B51EC180B00F0C6FBF2E753ECF9
:102A30001B2B51EC190B00F02FFB06D853EC1A2B73
:102A400051EC180B00F0A0F9E4E78DED028B9DED41
:102A50000C0B18EE901A10EE900A8DED000B61F33E
:102A60001E0003909DED020B04B0BDEC088B02B07C
:102A700010BD000000000000000000000000F03F5A
:102A8000000000000000E03F000000000000E0BF88
:102A90002DE9F043814687B00020284B284C049054
:102AA000059002464FF4D0754FF41A7602900390C9
:102AB000ADF800001AE000BFBDF80070174402979F
:102AC000B7420EDADDF808C059F82C70BDF800C026
:102AD00051F82CC003FA8CFCDDF80C8007FB0C8746
:102AE0000397BDF800707F1CADF80070BDF8007052
:102AF000AF42E1D3039FE760E768DDF810C06745A8
:102B000002DDE768CDE90472521C92B2B242CED324
:102B1000059800EB4010C11700EB1170001100F098
:102B200014FA41EC100BFFF743FF51EC100B00F0CF
:102B3000DFF9A08007B0BDE8F083000038F9FFFF9F
:102B40000000002010B500231A4603E050F8224090
:102B5000521C23448A42F9DB93FBF1F010BD0000C4
:102B60001CB5FEF7B7FBFFF78DFCFFF729FB7B4891
:102B70000025016841F40011016000682A4600F454
:102B80000010009029461020FEF704FC1020FEF7EC
:102B9000F3FB744900957248019508600846FEF7FA
:102BA00014F808B172B6FEE72420CDE90005002232
:102BB00069466C48FDF7E3FF08B172B6FEE7FFF720
:102BC0007DFBFFF745FBFFF7CBFAFFF7F3FB674809
:102BD000654901604FF41651C0E901150C21C5602B
:102BE000C0E904518561C561FFF7F8F908B172B613
:102BF000FEE7FFF795FBDFF87891012202214C46B2
:102C00004846FEF753FB002204212046FEF74EFB08
:102C1000002208212046FEF749FB4FF47A7A5046FD
:102C2000FEF732FA4F485C30FEF77EFF4FF4D07B60
:102C30005B46504A00214B480095FEF72BF8494867
:102C40004838FDF7EFFE494800219038FFF760F95A
:102C5000494E4FF41A77A6F1060800BFB8F80200F3
:102C6000B842FBD1414839464430FFF76BFF3F4A39
:102C70000021443252F821301B1A42F82130491CFD
:102C800089B2B942F6D339483A494430FFF700FFD8
:102C9000A8F80250444688F8015030226078325437
:102CA000401CC0B260700328F8D305E03078401CA7
:102CB0003070A0886438A080A0886428F6D205E02F
:102CC0007078401C7070A0880A38A080A0880A28FC
:102CD000F6D2B078A1880844B070207828B953465D
:102CE000022226A12148FFF7E1F9534662782249E2
:102CF0001E48FFF7DBF95346012221A11B48FFF7CD
:102D0000D5F91E20FEF7C0F940211E48FEF7C6FA8D
:102D10002078401CC0B22070022800D9257020788D
:102D200020B1012805D0022808D113E00122022198
:102D300001E0012204214846FEF7B8FA5B460D4A3D
:102D4000002108480095FDF7A5FF06484838FDF723
:102D500069FE83E701220821EDE7000030380240D8
:102D60000074004068000020001001409C01002019
:102D7000000802409833000806000020730A000093
:102D80000A0000000000024010B591EA030F48BF9E
:102D900083F0004300F11882841A71EB030C05D212
:102DA000121943EB0C03001B61EB0C01DFF824E16B
:102DB0004FEA1154A4EB135C1EEA430F18BF9EEABE
:102DC000445F73D023EA0E03DCF1200E21EA0451A4
:102DD00043F4801332D322FA0CFE10EB0E0023FAD8
:102DE0000CFE41EB0E01CCF1200E03FA0EFE10EBAF
:102DF0000E0051F10001B1F5801FCCF1200E32D24E
:102E000001EB045112FA0EF2BDE8104058BF7047B2
:102E1000401C38BF5FEA420218BF7047002814BF49
:102E200020F0010041F100014FEA410313F5001FBA
:102E300038BF7047A1F1C04100F028B9012A43EB27
:102E40000302ACF1200CDCF11F0E32BF4FF0000E7C
:102E500023FA0CF310EB030041EB0451B4EB115FC8
:102E6000D0D0A1EB045101F5801149085FEA300090
:102E700001EB04510ED350F1000038BF12FA0EFEE0
:102E800008D1BDE81040C9E7401C38BF5FEA4202E4
:102E9000CAD1C3E7BDE810404FEA410313F5001F54
:102EA00038BF7047A1F1C04100F0F0B89EEA445F1E
:102EB00008D011EA5E0FBDE8104004BF01F00041E8
:102EC00000207047BDE8104070B500F091F800BFD9
:102ED00064FBBE3E0000E0FF491058BFC1F1404115
:102EE0005B1058BFC3F140438B42EFF30080704743
:102EF0004FEA1153A3F58063D3F11E03A8BFD3F1AA
:102F0000200C08DB4FF0004242EAC12252EA505244
:102F100032FA03F0704709420BD4102BC4BF0020D3
:102F2000704703F5787CBCF1FF3F05D04FF0FF30D0
:102F300070474FF00000704770B500F059F800BFBF
:102F40004992248000207047F0E710F0004248BF0B
:102F50004042B0FA80F310FA03F10AD0C3F11D0326
:102F600003F580634FEA415002EB035202EBD1219B
:102F700070474FF00000704751EA030C17D41CF55E
:102F8000801F58BFBCF5801F00F10680994218BF12
:102F9000704708BF9042704707D711F5801F58BF90
:102FA00013F5801F19D499427047894270471CF568
:102FB000801F08D5BCF5801FF7D58B4218BF70471E
:102FC00008BF824270474FF4001C1CEB410F38BF12
:102FD0001CEB430F01D28B42704770B500F008F82C
:102FE000922449004FF000514FF08053FFF774BF17
:102FF0000EF1020E2EF0030E5EF8046B364205D47D
:10300000012A43EB030515F5001F12D8012841EBF7
:10301000010C1CF5001F0CD80ED14FEAD17C15F520
:10302000001F0CEB4C0C0CF1020C08BF4CEBD37CDA
:1030300004E04FF0080C01E04FEAD37C0CEB4C05A8
:1030400026FA05F606F00706B6F1040C06D20EEBDA
:10305000860CBDE870404CF0010C6047DFE80CF0D6
:10306000090B02024FF000414FF00000A1F50021D2
:1030700070BD19461046012851EB010418BFD4F564
:10308000001484BF002001F0004170BD0808A0F5C5
:1030900000114FEA3101704753EA010C17D41CF5B7
:1030A000801F58BFBCF5801F00F106808B4218BFFF
:1030B000704708BF8242704707D713F5801F58BF7B
:1030C00011F5801F19D48B4270479B4270471CF545
:1030D000801F08D5BCF5801FF7D5994218BF7047EF
:1030E00008BF904270474FF4001C1CEB430F38BFE1
:1030F0001CEB410F01D2994270470FB40CBC03BCCA
:10310000FFF76BBF5FEA410C5FEA5C5CACF5806384
:103110005B1C39D4D3F1340240F34580B2F1200373
:1031200014DA4FF0010C0CFA02FCACF1010303407D
:10313000B3EB5C0220EA030008BF10EA0C0F98BF53
:10314000704710EB0C0041F1000170470AD0C3F149
:10315000200201FA02FC012821FA03F101FA03F12D
:103160004CF100004FF0010C0CFA03FCACF1010330
:10317000B0F1004F21EA030108BF11EA0C0F4FF034
:10318000000088BF61447047B3F1FF3F28BF50EA99
:10319000C12C01F000414FF0000084BF41F07C5190
:1031A00041F470017047B3F5806FB8BF704770B5D8
:1031B000FFF71EFF40DBB6BE10B591EA030F48BF14
:1031C00083F000433FF5E8AD841A71EB030C07D29E
:1031D00012198CF0004C43EB0C03001B61EB0C014B
:1031E000DFF8A4E14FEA1154A4EB135C1EEA430F8D
:1031F00018BF9EEA445F00F0B08023EA6E0352429B
:1032000021EA0451C3EB6E0338BF5B1EDCF1200ED4
:1032100025D322FA0CFE10EB0E0043FA0CFE41EB14
:103220000E01CCF1200E03FA0EFE10EB0E0051F150
:103230000001CCF1200E29D412FA0EF201EB045158
:10324000BDE8104058BF7047401C1CBFB2F1004F92
:10325000704700280CBF491C20F00100704712EB9A
:10326000020E43EB030218BF4FF0010E4EEA42027A
:10327000ACF1200CDCF11E0E54D943FA0CFE10EB1D
:103280000E0051F1FF31CCF11E0ED5D50EF1010E1D
:1032900012FA0EFE404141EB010101EB445C5FEA92
:1032A0005C5C10D910EBDE7001EB045138BFBEF14D
:1032B000004FBDE8104018BF704700280CBF491CE4
:1032C00020F00100704730D24FEAD42C11F50011E4
:1032D00024F400641BD0B1FA81F20B3AA41AA41EA4
:1032E000D2F12003914030FA03F31943904001EBEF
:1032F000CC71002C01EB0451BDE81040A8BF704711
:1033000001F1C0414FF0000001F000417047B0FAF8
:1033100080F310FA03F100D110BDE41A173C480500
:10332000C90AE4E701EB045110BD491001EB045157
:10333000BDE810404FEA300002E04FF00001704756
:103340004A0008BF0042F8D0B2F5001F28BF7047FE
:1033500001F000414FF0000070479EEA445F07D043
:1033600011EA5E0FBDE8104004BF00210020704745
:10337000BDE8104070B5FFF73BFE00BF40DFF63EF2
:1033800083F00041104670470000E0FF4FF04070AE
:10339000E1EE100A70470000C80600001B0800009C
:1033A000600900008C0A0000940B00006B0C000008
:1033B0000C0D00006F0D0000900D00006F0D00005F
:1033C0000C0D00006B0C0000940B00008C0A000038
:1033D000600900001B080000C80600007505000019
:1033E0003004000004030000FC010000250100007F
:1033F0008400000021000000000000002100000007
:103400008400000025010000FC010000040300000E
:103410003004000075050000C80600001B0800000D
:10342000600900008C0A0000940B00006B0C000087
:103430000C0D00006F0D0000900D00006F0D0000DE
:103440000C0D00006B0C0000940B00008C0A0000B7
:10345000600900001B080000C80600007505000098
:103460003004000004030000FC01000025010000FE
:103470008400000021000000000000002100000086
:103480008400000025010000FC010000040300008E
:103490003004000075050000C80600001B0800008D
:1034A000600900008C0A0000940B00006B0C000007
:1034B0000C0D00006F0D0000900D00006F0D00005E
:1034C0000C0D00006B0C0000940B00008C0A000037
:1034D000600900001B080000C80600007505000018
:1034E0003004000004030000FC010000250100007E
:1034F0008400000021000000000000002100000006
:103500008400000025010000FC010000040300000D
:103510003004000075050000C80600001B0800000C
:10352000600900008C0A0000940B00006B0C000086
:103530000C0D00006F0D0000900D00006F0D0000DD
:103540000C0D00006B0C0000940B00008C0A0000B6
:10355000600900001B080000C80600007505000097
:103560003004000004030000FC01000025010000FD
:103570008400000021000000000000002100000085
:103580008400000025010000FC010000040300008D
:103590003004000075050000C80600001B0800008C
:1035A000600900008C0A0000940B00006B0C000006
:1035B0000C0D00006F0D0000900D00006F0D00005D
:1035C0000C0D00006B0C0000940B00008C0A000036
:1035D000600900001B080000C80600007505000017
:1035E0003004000004030000FC010000250100007D
:1035F0008400000021000000000000002100000005
:103600008400000025010000FC010000040300000C
:103610003004000075050000C806000075050000B4
:103620003004000004030000FC010000250100003C
:1036300084000000210000000000000021000000C4
:103640008400000025010000FC01000004030000CC
:103650003004000075050000C80600001B080000CB
:10366000600900008C0A0000940B00006B0C000045
:103670000C0D00006F0D0000900D00006F0D00009C
:103680000C0D00006B0C0000940B00008C0A000075
:10369000600900001B080000C80600007505000056
:1036A0003004000004030000FC01000025010000BC
:1036B0008400000021000000000000002100000044
:1036C0008400000025010000FC010000040300004C
:1036D0003004000075050000C80600001B0800004B
:1036E000600900008C0A0000940B00006B0C0000C5
:1036F0000C0D00006F0D0000900D00006F0D00001C
:103700000C0D00006B0C0000940B00008C0A0000F4
:10371000600900001B080000C80600001B0800002C
:10372000600900008C0A0000940B00006B0C000084
:103730000C0D00006F0D0000900D00006F0D0000DB
:103740000C0D00006B0C0000940B00008C0A0000B4
:10375000600900001B080000C80600007505000095
:103760003004000004030000FC01000025010000FB
:103770008400000021000000000000002100000083
:103780008400000025010000FC010000040300008B
:103790003004000075050000C80600001B0800008A
:1037A000600900008C0A0000940B00006B0C000004
:1037B0000C0D00006F0D0000900D00006F0D00005B
:1037C0000C0D00006B0C0000940B00008C0A000034
:1037D000600900001B080000C80600007505000015
:1037E0003004000004030000FC010000250100007B
:1037F0008400000021000000000000002100000003
:103800008400000025010000FC010000040300000A
:103810003004000075050000C806000075050000B2
:103820003004000004030000FC010000250100003A
:1038300084000000210000000000000021000000C2
:103840008400000025010000FC01000004030000CA
:103850003004000075050000C80600001B080000C9
:10386000600900008C0A0000940B00006B0C000043
:103870000C0D00006F0D0000900D00006F0D00009A
:103880000C0D00006B0C0000940B00008C0A000073
:10389000600900001B080000C80600001B080000AB
:1038A000600900008C0A0000940B00006B0C000003
:1038B0000C0D00006F0D0000900D00006F0D00005A
:1038C0000C0D00006B0C0000940B00008C0A000033
:1038D000600900001B080000C80600007505000014
:1038E0003004000004030000FC010000250100007A
:1038F0008400000021000000000000002100000002
:103900008400000025010000FC0100000403000009
:103910003004000075050000C806000075050000B1
:103920003004000004030000FC0100002501000039
:1039300084000000210000000000000021000000C1
:103940008400000025010000FC01000004030000C9
:103950003004000075050000C80600001B080000C8
:10396000600900008C0A0000940B00006B0C000042
:103970000C0D00006F0D0000900D00006F0D000099
:103980000C0D00006B0C0000940B00008C0A000072
:10399000600900001B080000C80600001B080000AA
:1039A000600900008C0A0000940B00006B0C000002
:1039B0000C0D00006F0D0000900D00006F0D000059
:1039C0000C0D00006B0C0000940B00008C0A000032
:1039D000600900001B080000C80600007505000013
:1039E0003004000004030000FC0100002501000079
:1039F0008400000021000000000000002100000001
:103A00008400000025010000FC0100000403000008
:103A100030040000750500000006101600061016A0
:103A2000000000000000000001020304060708096E
:103A30000000000001020304583A000800000020C2
:103A400020000000C4010008783A0008200000208F
:103A500020120000E001000801000000000000004A
:103A60000000000000000000010000001000000045
:083A7000000000000024F40036
:040000050800018965
:00000001FF
